:100000000C9482030C949F030C949F030C949F0305
:100010000C949F030C949F030C949F030C949F03D8
:100020000C949F030C949F030C94B92A0C948D2B71
:100030000C9448250C949F030C949F030C949F03ED
:100040000C949F030C949F030C949F030C949F03A8
:100050000C949F030C94CF250C949F030C949F0346
:100060000C949F030C949F030C949F030C949F0388
:100070000C949F030C949F030C949F030C949F0378
:100080000C949F030C949F030C949F030C949F0368
:100090000C949F030C949F030C949F030C949F0358
:1000A0000C949F030C949F030C949F0329001E0043
:1000B0001F0020002100220023002400250026002C
:1000C00027002A002B0014001A0008001500170052
:1000D0001C0018000C00120013002D003900040051
:1000E0001600070009000A000B000D000E000F00AB
:1000F00028000000E1001D001B000600190005009B
:100100001100100050004F00E5000000E000650005
:10011000E20000002C0000000000E6002152000078
:100120000000000029003A003B003C003D003E007A
:100130003F00400041004200430044002B001400F7
:100140001A000800150017001C0018000C0012000F
:1001500013003800390004001600070009000A00E7
:100160000B000D000E000F0028000000E1002378B6
:1001700024782778287821782278100036003700F4
:10018000E5000000E0006500E20000002C00000037
:100190000000E600E7000000000000000100010090
:1001A0000100010001000100010001000100010047
:1001B0000100010001000100010001000100010037
:1001C0000100010001000100010001000100010027
:1001D0000100010001000100010001000100010017
:1001E0000100000001000100010001000100010008
:1001F00001000100010001000100000001000100F8
:1002000001000000010000000000010001000000EA
:1002100000000000010001000100010001000100D8
:1002200001000100010001000100010001000100C6
:1002300001000100010001000100010001000100B6
:1002400001000100010001000100010001000100A6
:100250000100010001000100010000000100010097
:100260000100010001000100010001000100010086
:100270000100000001000100010000000100000079
:100280000000010001000000000000001E0F05003A
:10029000047F3F1F643214643214783C1E1E140A1B
:1002A000052223252628292A2C2D2F3032333536B6
:1002B000383A3B3D3E4042434547494A4C4E5051F7
:1002C000535557595A5C5E6062646668696B6D6F1E
:1002D00071737577797B7D7F81838587898A8C8E21
:1002E00090929496989A9C9E9FA1A3A5A7A8AAAC29
:1002F000AEAFB1B3B4B6B8B9BBBCBEBFC1C2C3C563
:10030000C6C7C9CACBCCCDCED0D1D2D2D3D4D5D604
:10031000D7D7D8D9D9DADADBDBDBDCDCDCDCDCDD37
:10032000DDDDDDDCDCDCDCDCDBDBDBDADAD9D9D81B
:10033000D7D7D6D5D4D3D2D2D1D0CECDCCCBCAC9B3
:10034000C7C6C5C3C2C1BFBEBCBBB9B8B6B4B3B1E2
:10035000AFAEACAAA8A7A5A3A19F9E9C9A9896947D
:1003600092908E8C8A89878583817F7D7B79777552
:1003700073716F6D6B6968666462605E5C5A595731
:10038000555351504E4C4A4947454342403E3D3BF0
:100390003A3836353332302F2D2C2A29282625237A
:1003A00022FFAA7F5540000102030405000101015C
:1003B0000101010101010202020202020202020322
:1003C00003030303030303040404040404040505F2
:1003D00005050506060606060707070707080808B5
:1003E00008090909090A0A0A0B0B0B0C0C0C0D0D64
:1003F0000D0E0E0E0F0F0F101011111112121313FC
:100400001414151516161717181819191A1A1B1B74
:100410001C1D1D1E1E1F20202122222324242526D0
:1004200026272829292A2B2C2D2D2E2F3031323208
:10043000333435363738393A3B3C3D3E3F40414214
:10044000434445464748494A4C4D4E4F50515354FA
:10045000555658595A5B5D5E5F61626465666869AE
:100460006B6C6D6F7072737577787A7B7D7E80822E
:10047000838587888A8C8E8F91939596989A9C9E77
:10048000A0A2A3A5A7A9ABADAFB1B3B5B7BABCBE87
:10049000C0C2C4C6C9CBCDCFD1D4D6D8DBDDDFE254
:1004A000E4E7E9EBEEF0F3F5F8FAFDFF00000000F9
:1004B000000000002A2B28000000000000000000BF
:1004C0000000000000000029000000002C1E342065
:1004D000212224342627252E362D3738271E1F208B
:1004E0002122232425263333362E37381F040506D0
:1004F0000708090A0B0C0D0E0F1011121314151614
:100500001718191A1B1C1D2F3130232D3504050611
:100510000708090A0B0C0D0E0F10111213141516F3
:100520001718191A1B1C1D2F3130354C0000000004
:1005300000000000000000000000000000000000BB
:1005400000000000000000000000000000000000AB
:100550007E0F00D4FFFFFFC7000000781203720077
:100560006F0077006C006F007700350032000000EC
:100570000803944E0867E896000004030904090282
:100580005B00030100A0FA0904000001030101005F
:100590000921110100012240000705810308000123
:1005A00009040100020300000009211101000122D9
:1005B0002200070582032000010705030320000134
:1005C00009040200010300000009211101000122B9
:1005D000B60007058403200001120100020000009C
:1005E00008313A00001301010200010660FF0961B1
:1005F000A1010962150026FF0095207508810209F6
:1006000063150026FF00952075089102C0050109B9
:1006100002A10185020901A1000509190129081596
:100620000025019508750181020501093009311580
:1006300081257F95027508810609381581257F95EA
:100640000175088106050C0A38021581257F950180
:1006500075088106C0C005010980A1018503190143
:100660002AB700150126B700950175108100C00555
:100670000C0901A101850419012AA002150126A077
:1006800002950175108100C005010906A1018506CA
:10069000050719E029E71500250195087501810274
:1006A0000507190029EF1500250195F07501810254
:1006B0000508190129059505750191029501750334
:1006C0009101C005010906A101050719E029E715F7
:1006D00000250195087501810295017508810105C4
:1006E00007190029FF150026FF00950675088100EF
:1006F00005081901290595057501910295017503F4
:100700009101C00011241FBECFEFDAE0DEBFCDBFE4
:1007100011E0A0E0B1E0E8EBFEE502C005900D922B
:10072000AA3EB107D9F723E0AAEEB1E001C01D92BD
:10073000A334B207E1F70E94DE120C94F32E0C945E
:1007400000000E94041C86E00E94CD1B089584E0F6
:1007500008958430B8F46530A8F44C3098F450E033
:100760009CE0699F400D511D1124FA019CE3899F73
:10077000E00DF11D1124EE0FFF1FE455FF4F859191
:100780009491089581E090E0089581E0089581E0DA
:1007900008950E94C703089508950E94CC03089508
:1007A000A5E0B0E0E6EDF3E00C94E52D49835A8333
:1007B0003091F10189819A81311119C0662399F034
:1007C000222389F00E945209182F682F89819A816B
:1007D0000E942E0969817A81812F0E9452102596EC
:1007E000E3E00C94012E0E944009182FF3CF0E94E1
:1007F000520969817A81F1CFFC01262F4081518114
:100800006281738184810E94D003089581E00895FC
:10081000CF93DF93EC0160E00E94FC03BE010E94D5
:10082000CD03DF91CF91089508950E9424080E947E
:1008300014042FEF84E39CE0215080409040E1F7C6
:1008400000C0000008950E9415040E94F325089539
:100850000E9415040E94042608950F931F93CF93BE
:10086000DF938C0161E00E94FC03EC01B8010E945F
:10087000D61D811106C080E0DF91CF911F910F91AD
:100880000895B801CE010E94C9038823A1F3B801DD
:10089000CE010E942023882371F3B801CE010E946B
:1008A000471F882341F3B801CE010E94922288237A
:1008B00011F3B801CE010E94D01C8823E1F2B801E7
:1008C000CE010E9464238823B1F2F801828188233B
:1008D00061F0C330FCE7DF07E9F058F4C115ECE73D
:1008E000DE07A9F0C130DC47B9F0C8010E94C5039A
:1008F000C3CFCB358CE7D807A9F0CC35ECE7DE07C2
:1009000071F0CA35DC4789F70E94A50DEECF0E9431
:100910002304B1CF0E94AD0D0E942804ACCF0E94E9
:100920009B0DE3CF0E94A90DE0CF0E9424250E94D9
:10093000BC0408950E94C0040E94292508950895CA
:1009400081E008950895CF93DF93D82F0E94A004EB
:10095000C82F882319F08D2F0E94A2048C2FDF91BD
:10096000CF9108950895CF93C82F0E949F048C2F94
:100970000E94A304CF91089580E00E94B3040895DB
:100980000E94B7230E94B3040895CF930E94B72317
:10099000C82F8091EC018C1779F0C093EC010E9474
:1009A000B4256093ED017093EE018093EF01909375
:1009B000F0018C2F0E94B304CF910895ABE0B0E01A
:1009C000E4EEF4E00C94E62D4F83588769877A872C
:1009D0008B8761110E94E60C1E821D8285E0FE015C
:1009E0003796DE01119601900D928A95E1F78C8180
:1009F0009D81892B61F449815A816B817C818D8134
:100A00009E810E940E0C2B96E2E00C94022E8981AE
:100A10009A8189238F3F79F3CE0101960E940604C3
:100A20008111E9CFF0CFFC01808191810E947F0983
:100A30000895662329F00E9462130E9435140895D8
:100A40000E94BC13FACFCF93C82F8823B9F08CEF44
:100A50008C0F813AA8F46C2F8091040190910501CC
:100A60000E944A24882329F08C2F0E94A60C0E9401
:100A7000070D8C2F0E949E0C0E94070DCF910895A8
:100A800080E28C0F883048F4C77081E001C0880F85
:100A9000CA95EAF70E94C90CEFCFEBE5EC0FE33003
:100AA00040F4F0E0ED59FE4F808190E00E94EC238D
:100AB000E5CFE8E5EC0FEB3150F4F0E0EE0FFF1F6F
:100AC000E35DFE4F808191810E941124D7CF83E3A3
:100AD0008C0F833198F661E08C2F0E941905CECFE0
:100AE000882381F19CEF980F913A28F40E94A60C7C
:100AF0000E94070D089590E2980F983050F4877087
:100B000091E001C0990F8A95EAF7892F0E94CF0CD6
:100B1000EFCF9BE5980F933028F490E080E00E949F
:100B2000EC23089598E5980F9B3128F490E080E03D
:100B30000E941124089593E3980F933118F460E014
:100B40000E94190508951F93CF93DF93182FEB018F
:100B50000E942305209739F4812F0E947005DF91B0
:100B6000CF911F9108958FE99FE00197F1F700C0A1
:100B700000002197EFCF70E060E0893311F460E569
:100B800070E00E94A3050895882321F00E94C90CFB
:100B90000E94070D0895882321F00E94CF0C0E9427
:100BA000070D0895B0E0A0E0E8EDF5E00C94DF2D2E
:100BB0006C01D62FC72FFC011281058102950F70A1
:100BC0000E94BF0CE82E8823E9F0E12E1123D1F01A
:100BD0008C2F807F803451F080E28D0F8830F8F0C8
:100BE000011104C08C2F807E8032C9F080910603F1
:100BF00082FF15C082E00E946A0D0E94BF0C91E046
:100C0000E82EE926BC2EB2949FE0B922FBE0FB154A
:100C1000B8F1EB2DF0E0EB50F14D0C94982DE12C58
:100C2000F1CF0C2F0F70C07F11F00295007F1123C0
:100C300099F0002359F080E28D0F883010F0D11127
:100C400007C0802F0E94C90C0E94070D8D2F63C022
:100C5000802F0E94D90CF8CF8D2F0E9470050023A1
:100C600079F080E28D0F883010F0D11104C0802F10
:100C70000E94CF0C03C0802F0E94DF0C0E94070D42
:100C80002B2D2850330B2430310520F40E94B7233C
:100C90000E94B304EE2089F00E94BB0C80FD0DC0C1
:100CA000F60112820E94B50C0E94A208C6010E94A1
:100CB000E4070E94B50C0E94AE08CDB7DEB7E9E0AC
:100CC0000C94FB2D2C2F2F70F22EC07FC03219F008
:100CD000F29480EFF822DD2381F0D13009F449C08D
:100CE000112309F451C0002309F448C0F60185819D
:100CF00080FFACCF8F70858341C08091060382FD59
:100D000015C0112359F0FF2029F08F2D0E94C90C26
:100D10000E94070D80E00E942305B2CF80E00E9470
:100D20007005FF2009F4ACCF8F2DA2CF112381F0E5
:100D3000011106C00E94E90C8F290E94C405A0CFB2
:100D40000130C1F70E94E90C8F290E94F00C98CF66
:100D5000011106C00E94FD0C8F2D0E94CB0590CF83
:100D6000013009F48DCF8F2D0E94CB050E94FD0C20
:100D700087CF112329F0063008F082CF8F2DDDCFE9
:100D8000053008F07DCFE8CF002331F3D93349F4A3
:100D9000FFEF27EE33E0F15020403040E1F700C094
:100DA00000008D2F0E9470056BCF8C2F8695869545
:100DB000837069F0813009F063CF8D2F9C2F937081
:100DC000111102C080E090E00E94112459CF8D2FB4
:100DD0009C2F9370111102C080E090E00E94EC23E0
:100DE0004FCF612F8D2F0E9419054ACF8C2F837012
:100DF00079F5111145CF4D2F429546954770440F17
:100E0000440F8D2F8F70042E01C0880F0A94EAF7CB
:100E10002D2F2071D4FF07C02FE030E001C0220F3A
:100E20004A95EAF72095C695C695C370822BC230C5
:100E300049F058F4C13019F00E947E0821CF0E9479
:100E400078081ECF0E9484081BCF0E94750818CF17
:100E50008695112311F08C2F8170882309F410CF0F
:100E60004D2F429546954770440F440F8D2F8F703C
:100E7000042E01C0880F0A94EAF72D2F2071D4FFA9
:100E800007C02FE030E001C0220F4A95EAF7209515
:100E9000C695C695C370822BC23049F058F4C13054
:100EA00019F00E94CD08ECCE0E94C708E9CE0E943E
:100EB000D308E6CE0E949008E3CECF70112329F02C
:100EC0008C2F0E94A2088D2F38CF8D2F0E94CB052A
:100ED0008C2F0E94AE08D4CED23F41F160F4D03FB7
:100EE000B9F0D13F81F0112309F446C00111AECE13
:100EF0008C2F8F711FC0D33F01F1D43FA1F7809198
:100F0000060382FD24C08C2F8F71112311F312C0B0
:100F1000112341F0053008F0B3CE8C2F8F710E9461
:100F2000BB08AECE063008F0ABCEF7CF8C2F8F715A
:100F30001111CFCF0E94A208A3CE112329F08C2F2C
:100F40008F710E9499089CCE0E94950899CE11231A
:100F500049F0CF718C2F0E94A20863E08C2F0E9471
:100F60004C0D8ECE81E00E946A0D023008F488CECE
:100F700082E00E946A0D84CE002359F0D93309F033
:100F800010CF8FEF97EEE3E081509040E040E1F723
:100F900006CF8C2F8F719DCF0F931F93CF93DF932D
:100FA000EC01688179818A810E948A098C010E9402
:100FB000D9080E947408B801CE010E94D205DF91C1
:100FC000CF911F910F910895CF93DF93EC018B8107
:100FD0009C81892B29F08881998189238F3F51F445
:100FE000DF91CF910895CE010E94CC07CE010E94DF
:100FF0000804F6CFCE010E942D048111F4CF0E9487
:10100000BF0C882369F38A81882351F380910603FA
:1010100082FFE6CF82E00E946A0DE2CF90E080E09E
:101020000E94EC2390E080E00E9411240E94E60CD4
:101030000E94070D0E9451140E94351408950E94C9
:10104000AE0C0E940E0808950E94D60C0E941F0844
:10105000089592959F70963091F058F4925F9F702A
:10106000923058F4803F19F030F4883E30F481E03B
:1010700008959A5FF4CF843FD1F380E00895883ECD
:10108000B0F3813FD1F7F3CFFC0183819481892BA9
:1010900029F08081918189238F3F11F480E00895A8
:1010A000808191810E947F090E9429080895A5E00E
:1010B000B0E0EDE5F8E00C94E62D2596E2E00C9426
:1010C000022EA6E0B0E0E7E6F8E00C94E62D2696C6
:1010D000E2E00C94022E08950E946B0808950E948D
:1010E0006C0880930B02089508950E946F0808957C
:1010F00090910B02892B0E946F08089590910B022A
:1011000089230E946F08089590910B0289270E94FD
:101110006F0808950E946B0808950E948A08089538
:101120000E948D0880930A02089580E00E94900832
:10113000089591E001C0990F8A95EAF7892F0E94DE
:101140009008089521E030E001C0220F8A95EAF767
:1011500080910A02822B0E949008089521E030E0DD
:1011600001C0220F8A95EAF7209580910A02822316
:101170000E949008089521E030E001C0220F8A9576
:10118000EAF780910A0282270E94900808959091C0
:101190000A02892B0E949008089590910A028923DF
:1011A0000E949008089590910A0289270E94900851
:1011B00008950895262F277091E001C0990F2A9570
:1011C000EAF723E0769567952A95E1F7FB01EE0FA4
:1011D000FF1FE60FF71FE40FF51F50E040E0682FF8
:1011E00070E08191DF0111979B01042E02C03695BA
:1011F00027950A94E2F7217021952827292328278B
:101200002C934F5F5F4F4330510559F70895A82F36
:10121000A77023E0969587952A95E1F7FC01EE0FDC
:10122000FF1FE80FF91FE60FF71F50E040E080E0D6
:10123000219130E00A2E02C0369527950A94E2F7F4
:1012400021703327042E01C0220F0A94EAF7822B63
:101250004F5F5F4F4330510559F70895262F953062
:1012600070F48C3060F4682F70E08CE0989F600D13
:10127000711D112442EF51E0822F0E94DA08089577
:10128000292F953068F48C3058F490E062EF71E0CB
:101290003CE0239F800D911D11240E9407090895B1
:1012A00080E00895CF92DF92FF920F931F93CF9328
:1012B000DF936C0100910A0280910B02082BC3E0BE
:1012C000D0E010E0FC2EC8010C2E02C09595879549
:1012D0000A94E2F780FD0CC02197A0F7F12C8F2D26
:1012E000DF91CF911F910F91FF90DF90CF900895E4
:1012F000B6018C2F0E945E10019771F3F0CFCF934F
:10130000DF93EC010E945209BE010E945E10DF9142
:10131000CF9108951F93CF93DF93EB019091F1014B
:10132000992339F0CB010E947F09DF91CF911F9162
:101330000895882369F0CB010E945209182F682F65
:10134000CE010E942E09BE01812F0E945E10EDCFBA
:10135000CB010E944009182FF6CFE1E0F0E0DF0159
:1013600002C0AA0FBB1F6A95E2F7BD01DF0102C0F0
:10137000AA0FBB1F4A95E2F76A2B01C0EE0F2A9510
:10138000EAF7962F9823961302C08E2B0895E095C6
:101390008E230895242F462F682F80910A020E94E1
:1013A000AD090E94900808951F93CF93DF93C091D9
:1013B0000C0216E080910D028C1304C0DF91CF91D6
:1013C0001F910895D0E01C9FF0011D9FF00D112486
:1013D000E25FFD4F408151816281738184819581FB
:1013E0000E9461082196C770E5CF40913E0250915E
:1013F0003F026091400270914102809142029091BF
:1014000043020E946108089520910C0290910D0200
:1014100056E0291302C080E0089530E0529FF001A9
:10142000539FF00D1124E25FFD4F7181761306C0CA
:101430007081781303C07281741304C02F5F3F4F13
:101440002770E7CF81E008951F93CF93DF938091BA
:101450004302807F09F04BC080914002882309F449
:1014600046C080910C02C0910D0240913E02509105
:101470003F026091410270914202D42FD52316E0C1
:10148000C817A9F190E061157105A9F1DF3F99F145
:10149000189FF001199FF00D1124DF01A25FBD4FCD
:1014A00011962C911197251326C02C91241323C03B
:1014B00012962C91129721111EC013962D913C91DA
:1014C000261B370B283C3105B0F4809143028F7006
:1014D000806180934302ED5EFD4F80818F7080615B
:1014E00080838EE392E00E94E4070E94D409DF919A
:1014F000CF911F91089501968770C2CFA1E1B0E00E
:10150000E4E8FAE00C94DC2D8C0185E0F801DE01C2
:101510001D9601900D928A95E1F7F801F2808EE315
:10152000A82E82E0B82E409141025091420241150E
:10153000510509F45AC190913E0220913F02892F32
:1015400082238F3F09F451C1C080D1808380948071
:10155000E0904002B401641B750BEE2009F4F6C064
:1015600080914302382F307F683C710508F0AFC08E
:1015700031117AC0EF2C2D1116C09C1114C0F1103E
:1015800012C08F708061809343020E94F509C501EB
:101590000E94E40780914302F80185838E2D6196B5
:1015A000ECE00C94F82D81149104C9F18C2D8D215F
:1015B0008F3FA9F181E08F2580FF05C04F2D6D2D54
:1015C0008C2D0E94040A8114910459F18C2D8D21D7
:1015D0008F3F39F181E08F25F82FF170BF2E80FF0A
:1015E00039C04F2D6D2D8C2D0E94040AA82E81111B
:1015F00031C0CD86DE868D859E850E947F09292F8C
:1016000022952F70243078F49F702230A8F099230F
:10161000B9F0F8019581907F99F4EA2CBFCF80E072
:10162000CBCF80E0D9CF2A5F2F70223068F0C8017D
:101630000E94E407AB2CF1CF992311F0882369F3C2
:10164000805E883050F3F3CF803F38F3815F833082
:1016500070F7E3CFFF2009F4A1CF809143028160AE
:1016600080934302E12C9ACF2D1105C09C1103C039
:10167000FF2009F486C0C8010E944408882319F19C
:10168000FF2009F180914302803270F020913E02E8
:1016900030913F0238872F8319869B868A868C87F4
:1016A000CE0107960E94E40786E0F801AEE3B2E0BF
:1016B00001900D928A95E1F70E94240A0E94F50993
:1016C000EE24E3946BCFC8010E94E407F9CF3111F7
:1016D00014C0782D998A888AA6016F2D89890E9465
:1016E00057088EE392E00E94E40786E0F50111922C
:1016F0008A95E9F70E94F509B5CF2D110EC09C110E
:101700000CC0F1100AC08583C8010E94E40786E07E
:10171000F50111928A95E9F741CFC8010E9444086A
:10172000882389F2FF2079F280914302803208F405
:10173000BBCF20913E0230913F023A8329831B8226
:101740009D828C828E83CE010196ACCF683C710560
:1017500008F03DC0EF2CFF2009F4B5CF2D1129C0B2
:101760009C1127C08091430280FD1AC0982F907F62
:10177000B9F08583903F31F0982F907F905F8F7004
:10178000892B8583C8010E94E40786E0F801AEE357
:10179000B2E001900D928A95E1F70E94F509FECE24
:1017A00086E0F801AEE3B2E001900D928A95E1F790
:1017B000F5CEC8010E944408811176CF8091430282
:1017C000816080934302C8010E94E407E7CE782D30
:1017D000998A888AA6016F2D89890E94570886E018
:1017E000F50111928A95E9F7D8CFFF2009F46BCF64
:1017F000C8010E944408E82E882309F464CF86E0DB
:10180000F801AEE3B2E001900D928A95E1F78EE324
:1018100092E00E9413050E94240ABFCFACE0B0E022
:10182000E4E1FCE00C94E52D4F83588769877A87C3
:101830008B879C87CE0107960E947E0A8823B1F091
:101840008A859B85892B39F04F815885842F852384
:101850008F3F09F06CC016E080910C0290910D0250
:10186000891343C02C96E3E00C94012E86E0FE0120
:101870003796DE01119601900D928A95E1F78A85DF
:101880009B85892B41F38F81988589238F3F19F39D
:1018900020910D0230E0C90101968770992740918F
:1018A0000C024817190671F40E94240810920D02C8
:1018B00010920C0286E0EEE3F2E0DF011D928A95C1
:1018C000E9F7C9CF96E0929FD001939FB00D112404
:1018D000A25FBD4FFE01319601900D929A95E1F7FE
:1018E00080930D020E94D409B6CF819FC0011124BC
:1018F000825F9D4F0E947E0A882309F4B3CFE09156
:101900000C021E9FF0011124E25FFD4F40815181C6
:1019100062817381848195810E94610880910C02AB
:1019200090E001968770992780930C0295CF698586
:101930007A858B859C850E9461088DCF682F809168
:101940000401909105010E94CA240895682F809196
:101950000401909105010E94D8240895809104010A
:10196000909105010E94E624089580916402859576
:10197000859585950895809164028770089590916A
:101980006402977081E009F480E0089580918702F5
:10199000089590918702892B8093870208958095FE
:1019A000909187029823909387020895109287025E
:1019B000089590918602892B8093860208958095E0
:1019C0009091860298239093860208951092860241
:1019D000089580916502089508950E94EC0C089581
:1019E0009091060392FF08C090916502981721F02C
:1019F000809365020E94ED0C089580916502882312
:101A000029F01092650280E00E94ED0C0895CF93BA
:101A1000DF93E0910401F0910501809187028083BA
:101A2000E0910401F0910501808190918602892B5B
:101A3000808390916502992381F0E0910401F091F7
:101A400005018081892B808380910401909105019B
:101A50000E94362481110E94FD0CC0910401D09196
:101A6000050140E250E064E472E0CE010E94762E6F
:101A7000892B59F080E2FE01A4E4B2E001900D92BE
:101A80008A95E1F7CE010E94C423DF91CF9108959A
:101A900008950E94480D08959091060392FF11C089
:101AA00098E0899F90011124622B609364020E9448
:101AB000A208809164028595859585950E94490DBF
:101AC00008950E94A20808951092640280E00E9486
:101AD000490D089590916402809589238093640252
:101AE000282F277091F4282F082E000C330B921703
:101AF000130659F09091060392FF07C085958595CE
:101B000085950E94AE080E94640D08959091060389
:101B100092FB222720F9281769F080FB92F9909315
:101B2000060380910503909106030E94CF0D82E089
:101B30000E946A0D08958091060382FB882780F930
:101B400091E089270E94860D089581E00E94860D0C
:101B5000089580E00E94860D08956FEF7FEF90E07A
:101B600080E00E94BE2E089590E080E00E949A2EB0
:101B7000873E9E4F19F40E946E1D089580E00895DF
:101B800082E090E00E948C2E089583E090E00E9415
:101B90008C2E089584E090E00E949A2E0895BC0156
:101BA00084E090E00E94BE2E0895AB01BC018FE05E
:101BB00090E00E94B22E0895AB01BC0183E190E059
:101BC0000E94B22E089560E070E0CB010E94DC0D0F
:101BD000089560E070E0CB010E94D50D0E94E30DF6
:101BE000089567EE7EEF90E080E00E94BE2E60E0F8
:101BF00082E090E00E94A02E60E083E090E00E94EE
:101C0000A02E10920B0260E074E184E090E00E944C
:101C1000BE2E60E086E090E00E94A02E6FEF87E08D
:101C200090E00E94A02E40E050E0BA0188E090E0F1
:101C30000E94B22E60E08DE090E00E94A02E40E075
:101C400050E0BA0188E190E00E94B22E60E087E1A6
:101C500090E00E94A02E40E050E0BA018CE190E0BC
:101C60000E94B22E70E060E080E290E00E94BE2E02
:101C700040E050E0BA0188E190E00E94B22E80E09E
:101C80000E94871D0E94B61D0E94E90D08950E94C2
:101C9000F10D0895682F8EE090E00E94A02E089527
:101CA000A5E0B0E0E6E5FEE00C94E42D0E94A82556
:101CB0008C01809188029091890280179107A1F090
:101CC0008FEF89838A831B820E94A8258160782FE9
:101CD0009D838C8349815A816B818D810E94DE04B2
:101CE00010938902009388022596E4E00C94002E5C
:101CF0000E94B425609398027093990280939A028F
:101D000090939B0260939402709395028093960245
:101D1000909397020895089508950E948C0E089557
:101D20000E94A103089581E0089588E491E10E9452
:101D3000AD230E948B0E0E948D0E08950E94930E7B
:101D400008950E949E0E0895089508950E94A40E7D
:101D50000E94A50E08950E9467110E94B204089582
:101D60000E949F250E94C61D0E943F120E94AB0E3A
:101D70000E94D11B0E94900E0895A5E0B0E0E3EC14
:101D8000FEE00C94DB2D0E94930E81110CC00E948A
:101D9000500E0E94171C0E9473140E94C5042596C1
:101DA000EDE00C94F72D0E9455122AE8822E22E0D5
:101DB000922E640110E0F601E190F1906F01812F05
:101DC0000E948A111F5F153009F449C0E816F90610
:101DD00091F380919C0281FD0E9493110E94A10EBB
:101DE000782E10E0812F0E948A117C01F401A190CD
:101DF000B1904F018A159B0561F1A826BF2400E030
:101E0000CC24C394D12CC5018C219D21892BC1F0F8
:101E10007720B1F009831A8321E0C7018C219D212D
:101E2000892B09F420E02B830E94A8258160782F5C
:101E30009D838C8349815A816B818D810E94DE0450
:101E40000F5FCC0CDD1C0C30F1F6F4013297F182FF
:101E5000E0821F5F153031F60E94780E9ACFE816A7
:101E6000F90609F0B6CF93CF1F93CF93DF930E946B
:101E70006310EC01C11580E5D807F0F5C11580E4C9
:101E8000D80708F09CC0C03ED10520F5CD3CD10557
:101E900008F082C0C83AD10578F4C53AD10508F0F7
:101EA00073C0C130D10519F1209709F1C430D105B3
:101EB000F0F4D0E0C0E01BC0C13CD105D0F7C85A57
:101EC000D0E0CC0FDD1FCA59DE4F0990D881C02D5C
:101ED000D4640DC0C11580E2D80708F0D1C0C11587
:101EE00081E0D80708F05AC0C83ED10510F7CE01EE
:101EF000DF91CF911F910895C03682E5D80718F57C
:101F0000C03482E5D80708F06BC0C03282E5D8073C
:101F100008F05FC0C11582E5D80708F497C02C2FE0
:101F20002695269580E2289F900111248C2F83709E
:101F3000C1E0D0E002C0CC0FDD1F8A95E2F7C22BD2
:101F4000D32BDD68D4CFC03A82E5D80760F4C0381F
:101F500082E5D80708F459C0CF71D0E0DC2FCC2738
:101F6000C46FD06AC4CFC03C82E5D80708F462C011
:101F7000C03E82E5D80708F09CCFDC2FCC27CC27C9
:101F8000DF71C06FD06AB3CFC55AD0E0C456DE4F00
:101F9000C881D0E0D064ABCFD065A9CF8D2F0E948F
:101FA0000511182FCE0199270E946310C12FD0E090
:101FB000DC2FCC27CC27DF71C82BD92B98CFCE01B3
:101FC00099270E946310CC27DF70C82BD92BD06AC9
:101FD0008ECFCF71D0E0DC2FCC27C16FD06A87CFF6
:101FE0002C2F26952695277080E2289F900111249A
:101FF0008C2F8370C1E0D0E002C0CC0FDD1F8A952A
:10200000E2F7C22BD32BDC6872CF2C2F26952695B6
:10201000277080E2289F900111248C2F8370C1E0EB
:10202000D0E002C0CC0FDD1F8A95E2F7C22BD32B84
:10203000DA685DCF8C2F8F710E940511C82FD0E018
:10204000DC2FCC27CC27DF71D06251CF8C2F8F7142
:102050000E94051155E0D695C7955A95E1F7CF70C6
:10206000D0E0DC2FCC27282F30E084FF05C044E0EF
:10207000220F331F4A95E1F7C22BD32BD06937CFFC
:102080008D2F8F710E940511182FCE0199270E9464
:102090006310C12FD0E0DC2FCC27CC27DF71C82BF9
:1020A000D92BD2CF462F753030F46C3020F4672F07
:1020B0000E94AA21089590E080E008950E945210A5
:1020C0000E94340F089582389105B9F1B0F481333C
:1020D000910509F47DC048F48932910509F46DC079
:1020E0008A32910509F47BC008958533910509F47E
:1020F0005FC08933910509F10895833E9105D9F1B7
:1021000038F4803E910529F1823E910579F10895D8
:10211000863E9105D9F1873E910509F43EC0843E83
:10212000910541F52091060321FF24C0809105030C
:1021300084FD19C087EE90E0089520910503237077
:1021400009F05AC02091060323FF14C089E290E0F1
:1021500008952091050320FD38C03091060330FF1B
:1021600009C024FF43C090E080E00895209105035A
:1021700022FDF7CF08952091050322FD3AC030914A
:10218000060330FD39C024FFF5CFEDCF20910503C4
:1021900023FFF0CF24FDE7CFCDCF2091050323FD12
:1021A0002EC03091060331FFEECF84EE90E008950B
:1021B0002091050325FFDECFC9CF2091050325FD22
:1021C00021C02091060323FFD5CF89E390E0D2CF31
:1021D0002091050326FFCECF8AE290E0089520915A
:1021E000050326FFC7CF81E390E0089583EE90E0DA
:1021F000089582EE90E0089580EE90E0089586EED6
:1022000090E0089585E390E008959091050392FF92
:1022100006C0282F28712830F9F4877F846093FF47
:1022200006C0282F28712831F1F4877E846120911F
:10223000060320FF06C0382F38713830D9F4877F65
:10224000816021FF06C0282F28712831D1F4877EB4
:10225000816194FD877E0895282F24712430F9F63A
:102260008B7F8860DCCF282F2471243101F78B7E8F
:102270008861DDCF382F3171313019F78E7F88605A
:10228000E0CF282F2171213121F78E7E8861E1CFA7
:1022900080E008950E94AD0D08950E9455122FEF21
:1022A00086E791E0215080409040E1F700C00000B7
:1022B0000E94551280E00E948A1180FF04C00E9493
:1022C0004A110E94F32508950E944D1108950E941D
:1022D000B40D811102C00E94470E0E94C00D809370
:1022E0009C020E94CA0D90930603809305030E94EE
:1022F00064110E94C50D0E94750880910A020E9417
:102300008D08089508950E948211089508950E94ED
:1023100086110895E82FF0E0EE0FFF1FEF5EFC4FEF
:10232000808191810895089580EA8A95F1F7089552
:1023300000C008950E9494110895F894E82FE29542
:10234000EF70F0E031A1282F2F7081E090E001C004
:10235000880F2A95EAF7982F9095932391A392A13D
:10236000892B82A378940895CF93DF93CBEAD1E0B1
:1023700089918F3F11F00E949D1181E0C03BD807E9
:10238000B9F7CFE9D1E089918F3F11F00E949D11FB
:1023900081E0CB3AD807B9F7DF91CF910895AF929A
:1023A000BF92DF92EF92FF920F931F93CF93DF9331
:1023B0008C01D62EC62FD0E0CE0185559E4F7C01D4
:1023C000FC0120812F3F09F44DC0F894E22FE295E3
:1023D000EF70F0E031A12F7081E090E001C0880F34
:1023E0002A95EAF7932F982B91A392A180958923A0
:1023F00082A378940E949811EFE9F1E04BEA51E052
:1024000021E030E0B12CA12C61916F3FA9F1A62F02
:10241000A295AF70B0E090968C9190E06F7002C082
:10242000959587956A95E2F780FD26C0C901A82A8F
:10243000B92A220F331F4E175F0731F7F70180814A
:102440008F3F11F00E949D1161E0A114B10409F4C5
:1024500060E08D2D0E949A11CC0FDD1FC00FD11F9F
:10246000B982A882DF91CF911F910F91FF90EF90D9
:10247000DF90BF90AF90089590E080E0D8CF0E94A9
:10248000B4118AE0E1E1F3E0DF01982F1D929A9503
:10249000E9F7E7E0F3E0DF011D928A95E9F785E0CF
:1024A0000E9490120E9483110895AAE0B0E0EBE52B
:1024B000F2E10C94E32D8E010F5F1F4F8AE0F801CB
:1024C00011928A95E9F7F12C6F2DC8010E94CF1166
:1024D000F394F5E0FF12F8CF4AE050E0B80187E04E
:1024E00093E00E94762E21E0009709F420E0892BEA
:1024F00041F08AE0F801A7E0B3E001900D928A95DF
:10250000E1F745E061E173E087E093E00E9491121A
:10251000182F0E948711812F2A96E5E00C94FF2D39
:102520000895CF92DF92EF92FF921F93CF93DF93A4
:102530006C017B01C42F222349F081E080939F022C
:102540000E94A82590939E0280939D0210919F0265
:1025500011110AC010E0812FDF91CF911F91FF90E0
:10256000EF90DF90CF90089580919D0290919E0210
:102570000E94C025059770F3D0E0CC0FDD1FAE019F
:10258000B601C7010E94762E892B41F0AE01B6013B
:10259000C7010E94832E10929F02DDCF10E0FBCF77
:1025A0000E948E270E94B00E0E949B2708950E94D1
:1025B000A0270E94BD0E0E94BA2708950E944125BF
:1025C0000E9474270E94950E0E94D0120E94D7127A
:1025D0000E94A60EFBCF8091A60280FF0DC06091E5
:1025E0000B0170E0660F771F6038710570F561159B
:1025F000710569F1862F089581FF07C060910B0175
:1026000084E0689FB0011124EFCF60910B0182FD3F
:102610000AC08091A5028823A9F020910A01609147
:102620000B01821710F088E0ECCF869FC0011124C7
:1026300033E0880F991F3A95E1F7622F70E00E940E
:10264000622DD2CF68E070E0D5CF8FE7089581E0AA
:1026500008958091A60280FF0CC06091070170E090
:1026600075956795759567956115710549F1862F83
:10267000089581FF06C06091070170E07595679528
:10268000F3CF6091070182FD0BC09091A4029923C2
:10269000A1F06091060180910701961738F0682F2C
:1026A00070E06038710500F38FE70895899FC001DD
:1026B000112470E00E94622DF4CF61E070E0D7CF6A
:1026C00081E008958D3C31F40E94EB128195809356
:1026D000AA0208958E3C19F40E94EB12F8CF8F3CA9
:1026E00031F40E94EB1281958093A9020895803DF8
:1026F00019F40E94EB12F8CF893D29F40E942913A6
:102700008093AB0208958A3D21F40E94291381959C
:10271000F7CF8B3D31F40E94291381958093AC0251
:1027200008958C3D19F40E942913F8CF9FE2980F69
:10273000983070F4815D990B21E030E001C0220FE8
:102740008A95EAF78091A802822B8093A8020895C7
:102750008D3D31F48091A60281608093A602089598
:102760008E3D21F48091A6028260F7CF8F3DB9F7AC
:102770008091A6028460F1CF4091A9028D3C59F46A
:102780008091AA0287FF0DC01092AA0241110BC0CE
:102790001092A50208C08E3C81F48091AA021816FE
:1027A0009CF3442381F08091AB029091AC02892B81
:1027B00009F05AC01092A40208958F3C49F447FFD3
:1027C000F0CF1092A9028091AA028111ECCFE0CF44
:1027D000803D19F41416ACF3E4CF9091AB02893D1F
:1027E00029F41916F4F61092AB02DBCF8A3D19F4E6
:1027F00097FFD7CFF8CF9091AC028B3D29F497FF8C
:10280000D0CF1092AC02CDCF8C3D19F41916CCF379
:10281000C8CF9FE2980F983090F4815D990B21E02A
:1028200030E0B90102C0660F771F8A95E2F7CB014D
:1028300080959091A80289238093A802B2CF8D3D04
:1028400031F48091A6028E7F8093A602AACF8E3D9E
:1028500021F48091A6028D7FF7CF8F3D09F0A1CFA3
:102860008091A6028B7FF0CF08950E94A8259C013D
:102870009091A9028091AA02982B21F03093A30293
:102880002093A2029091AB028091AC02982B21F090
:102890003093A1022093A00287EA92E00E94DE23F7
:1028A000089586E0E7EAF2E0DF011D928A95E9F7F4
:1028B0001092A5021092A4021092A6020895FC01A3
:1028C000828181110EC0838181110BC084818111AD
:1028D00008C091E08581811101C090E0892F81704D
:1028E000089581E0FCCFA6E0B0E0E9E7F4E10C94C4
:1028F000E52D86E0E7EAF2E0DE01119601900D9207
:102900008A95E1F71092A9021092AA021092AB02E6
:102910001092AC028B819C81892B89F08091A2025C
:102920009091A3020E94C025AC019091A502992329
:10293000C9F180910C018417150608F440C08D81FF
:102940009E81892B91F08091A0029091A1020E941A
:10295000C025AC019091A402992309F471C0809123
:1029600008018417150608F479C0BE016F5F7F4F18
:1029700087EA92E00E94F824811105C087EA92E07C
:102980000E945F1481110E94351486E0FE01319689
:10299000A7EAB2E001900D928A95E1F72696E3E06E
:1029A0000C94012E20910D018AE0289F90011124A2
:1029B0002417350720F69F5F9093A50202C09F3F22
:1029C000D1F71B81112359F00E94EB129FEF1116D2
:1029D0000CF491E0899F802D11248093A9021C8121
:1029E000112359F00E94EB129FEF11160CF491E0A5
:1029F000899F802D11248093AA023091A90233234C
:102A000009F49DCF2091AA02222309F498CF45EB27
:102A10003403C0011124992359F09093A90245EB86
:102A2000240390011124332339F03093AA0287CF75
:102A300081E08093A902F3CF81E08093AA027FCF47
:102A4000209109018AE0289F90011124241735075D
:102A500008F08BCF9F5F9093A40202C09F3FD1F7F5
:102A60001D81112359F00E9429139FEF11160CF4B8
:102A700091E0899F802D11248093AB021E81112348
:102A800059F00E9429139FEF11160CF491E0899FD1
:102A9000802D11248093AC023091AB02332309F4D2
:102AA00064CF2091AC02222309F45FCF45EB3403BD
:102AB000C0011124992359F09093AB0245EB2403F4
:102AC00090011124332339F03093AC024ECF81E0D2
:102AD0008093AB02F3CF81E08093AC0246CFEF92BC
:102AE000FF920F931F93CF93DF93EB01E82FD11148
:102AF0000EC0442321F0F0E0E455FC4FE4916E2F2A
:102B00007E2F8E2FCDB7DEB7E6E00C94FE2D0D2F75
:102B100010E0282F30E0442329F024553C4FF901E0
:102B2000249130E0F6E0CF9FC0011124EFEFF0E0F8
:102B3000BF010E944E2DAB018C2F90E0880F991F92
:102B4000A5E5A49FB001A59F700D1124861B970BCE
:102B5000982F990F980FBF01601B710B629FD001D6
:102B6000639FB00D729FB00D11248B2F9D9FB001FC
:102B70001124672F7727EF01C61BD70BBE01629F79
:102B8000E001639FD00D729FD00D11247F01E91ADF
:102B9000F108E09EB001E19E700DF09E700D1124D1
:102BA000672F7727E61BF70BE29F8001E39F100D4D
:102BB000F29F100D1124E12F722F4230510599F030
:102BC00048F44115510569F04130510581F0EB2F72
:102BD0008D2F07C04430510569F080F04630510513
:102BE000B1F76E2F8FCFE22F7B2F812FFACFE22FFD
:102BF0007D2FF7CFEB2F822F712FF3CF7B2F822FDB
:102C0000ED2FEFCF41E00E946F15089508950E94C7
:102C100002160895CF93DF93762FE901682F842F52
:102C20000E940716798368838A83DF91CF91089584
:102C300080911B03982F9E7F29F48170826080937E
:102C40001B0308958635E8F381708465F8CF88E02A
:102C500090E00E94942E0895CF92DF92EF92FF921F
:102C60006B017C010E941816B701A60188E090E074
:102C70000E94B22EFF90EF90DF90CF900895609168
:102C80001B0370911C0380911D0390911E030E94F1
:102C90002C160895EBE1F3E083E0808311828FEF3F
:102CA00082838383148260817181828193810E94F7
:102CB0002C16089580911B0380FF02C0869508950D
:102CC00080E0089580911B038170089590911F0307
:102CD000933018F49F5F90931F03882351F0609105
:102CE0001B0370911C0380911D0390911E030E9491
:102CF0002C16089581E00E946616089590911F0396
:102D0000992319F0915090931F03882351F06091FB
:102D10001B0370911C0380911D0390911E030E9460
:102D20002C16089581E00E947E16089580911F035D
:102D3000089580931F03662351F060911B037091E7
:102D40001C0380911D0390911E030E942C16089570
:102D500060E00E949916089580911C030895809167
:102D60001D03089580911E03089570E00E94421D86
:102D70000895CF92DF92EF920F931F93CF93DF933B
:102D8000CDB7DEB762970FB6F894DEBF0FBECDBFEA
:102D90006091120180911B0380FF36C0E6EAF3E0E8
:102DA0009E012F5F3F4F8E010D5E1F4FC901A49101
:102DB0004A2F50E0DA01AA0FBB1FA40FB51FA05E77
:102DC000BC4FCD90DD90EC90D901CD92DD92ED928B
:102DD0009D013196A017B10751F720911101B3E081
:102DE0002B9F800D911D11240E94B51662960FB67F
:102DF000F894DEBF0FBECDBFDF91CF911F910F9131
:102E0000EF90DF90CF90089580911301909114017D
:102E100023E0829FF0011124E05EFC4F891708F047
:102E2000BDCF1182108212828F5F3396F7CF9091BF
:102E30001B0390FF0EC0909113012091140133E009
:102E4000939FF0011124E05EFC4F921718F00E944E
:102E5000B91608958183608342839F5F3396F5CFCF
:102E6000A3E0B0E0E6E3F7E10C94E62D90911B03BC
:102E700090FF0AC09E012F5F3F4F0E940A164B81B0
:102E800069818A810E9417172396E2E00C94022E32
:102E9000CF93DF93EC01EC81F0E0EF55FD4F4491CF
:102EA000EBE1F3E0628181810E9430178C818F5FBA
:102EB0008C83DF91CF910895CF93DF93EC01EBE109
:102EC000F3E0438162818C810E9430178C818F5F97
:102ED0008C83DF91CF910895A3E0B0E0E2E7F7E1C2
:102EE0000C94E42D8C018091AD0281110AC09E01E9
:102EF0002F5F3F4F4FEF6FEF0E940A168A8180933A
:102F0000AD02F8016481613069F08091AD0240E06A
:102F1000662361F040E0623011F44091AD0280E040
:102F200060E004C06091AD0240E080E00E941717AD
:102F3000F801848190E0019663E070E00E94622DC8
:102F400084832396E4E00C94002EA3E0B0E0EBEA47
:102F5000F7E10C94DF2D082FD62EE42EC22E90918F
:102F60001B0390FF29C0E92FE695AE2FB0E0A055D6
:102F7000BE4F8C918093D5029E7F923009F59E01C1
:102F80002F5F3F4F802F0E940A164B8169818A81F3
:102F90000E94171700931C03D0921D03E0921E039A
:102FA000CC2051F060911B0370911C0380911D0394
:102FB00090911E030E942C162396E9E00C94FB2DA1
:102FC000823019F4E0901E03E5CF863019F40091A9
:102FD0001C03E0CF8930D9F38931E1F6E9516E2F36
:102FE0006170B62EE695F0E0EF55FC4F1491F12C90
:102FF00060911501F61618F00E94B916CBCFF19E1C
:10300000C001112470E00E944E2D802FB11014C019
:10301000860F20911301622F6F0D7727771F9B0179
:10302000220F331F260F371F205E3C4F4E2D6D2D74
:103030000E940A16F394DCCF861BEBCFEBE1F3E0A2
:103040009181282F438162818AE0890F0E94A51710
:10305000089581E00E941E180895EBE1F3E091814C
:10306000282F4381628186EF890F0E94A51708955A
:1030700081E00E942D180895EBE1F3E0628121E1E7
:10308000620F08F46FEF282F438181810E94A517FA
:10309000089581E00E943C180895EBE1F3E062811D
:1030A00021E1621B08F460E0282F438181810E94A6
:1030B000A517089581E00E944D180895EBE1F3E013
:1030C000438121E1420F08F44FEF282F6281818173
:1030D0000E94A517089581E00E945E180895EBE113
:1030E000F3E0438121E1421B08F440E0282F628194
:1030F00081810E94A517089581E00E946F180895AC
:1031000020E00E94A5170895EF92FF921F93CF939E
:10311000DF93EC0110E0EE24EA94F12C60911501AC
:10312000161770F00E94B9169A818C8190FF27C003
:103130008F5F8C83DF91CF911F91FF90EF90089567
:1031400020911301422F410F5527551FCA019A01A3
:10315000220F331F280F391F205E3C4F70E0C7013C
:103160000E94622D962F8C8140911E0360911D0359
:10317000199F800D11240E940A161F5FCFCF815026
:10318000D8CFB0E0A0E0E7ECF8E10C94DE2DFC0134
:1031900082810FEF80FF01E010E046E0A42E8091D5
:1031A0001501181798F00E94B9168091AF020130EE
:1031B00009F04FC0811102C08091150181508093A8
:1031C000AF02CDB7DEB7EAE00C94FA2DC09113013F
:1031D000C12ED12CCC0DDD2DD11DCE01880F991F14
:1031E000C80FD91FC05EDC4F198218821A8234E0E2
:1031F000E32EF12CB12C8091AF028B0D87301CF1A6
:103200006A2D0E94402D892F082E000C990BC8169C
:10321000D90691F480911E038E9DA0018F9D500DC3
:10322000112455954795559547959E0160911D032D
:1032300080911C030E940A16B00EF1E0EF1AF1080B
:10324000D1F61F5FACCF87FFDFCF90911501890FBB
:10325000DBCF90E001966091150170E00E94622D35
:10326000AECF0F931F93CF93DF9380911301909173
:10327000140123E0829FF0011124E05EFC4F8917C6
:1032800040F1C0E0D3E060911501C61740F10E9403
:10329000B91620910F018091AE02820F8093AE0289
:1032A00090911001920F90931001191654F4082E6A
:1032B000000C990B409115014150550B841795074F
:1032C0001CF0219520930F01DF91CF911F910F9159
:1032D00008951182108212828F5F3396D0CF0C2F07
:1032E00010E070E0C8010E94622D20911301820F4E
:1032F000482F50E02091AE02022E000C330B021733
:103300001307BCF020911001022E000C330B201784
:1033100031077CF08D9F90011124205E3C4F40913D
:103320001E0360911D0380911C030E940A16CF5F4B
:10333000AACFFA01EE0FFF1FE40FF51FE05EFC4F6E
:10334000118210821282F3CFB0E0A0E0EAEAF9E144
:103350000C94DC2DEC014C81042F10E09801D80175
:103360000E94AD2D9B01AC010E94C32D4B015C015D
:10337000E0E2F0E0E01BF10BA5E5B0E0AC019B0161
:103380000E94C32D6B017C019F01DF010E94A52DCE
:103390009B01AC010E94CE2D9B01AC01280D391D73
:1033A0004A1D5B1DC701B6010E94762DF22E822FA9
:1033B00090E039E23F1520F143E0249F9001112471
:1033C00035952795122F109500E085E5E82EEF182A
:1033D00080911501081718F10E94B9169C8181E0AF
:1033E000992319F0903219F48FEF80930E01809198
:1033F0000E01890F8C83CDB7DEB7ECE00C94F82D6D
:1034000025E530E0B901681B790B9B01220F331FC2
:10341000260F371F37FFD4CF2F5F3F4FD1CF8E2DD1
:1034200001FD8F2D20911301622F600F7727771FE9
:103430009B01220F331F260F371F205E3C4F412F69
:1034400060911D030E940A160F5FC2CF0F931F9356
:10345000CF93DF93EC0110E000E0909115019017FD
:10346000110609F06CF40E94B9168C8190E0019667
:10347000817099278C83DF91CF911F910F910895CF
:1034800020911301A801420F511D9A01220F331FF1
:10349000240F351F205E3C4F4C8160911D038091AD
:1034A0001C0396959017110651F04CF0442349F0F7
:1034B00040911E030E940A160F5F1F4FCECF442378
:1034C000B9F340E0F7CFB0E0A0E0E9E6FAE10C9410
:1034D000D82DFC016280448081E08483E1EAF2E03F
:1034E0007490E0E2F3E0E491C0911E03C695C158E8
:1034F000D0E0CC0FDD1FCD2FDD27812C75E0972E7E
:10350000AA24AA94B12C55245A94E719EE2EF12C32
:1035100080911501881638F00E94B916CDB7DEB734
:10352000E0E10C94F42DC82CD12C82E0861568F0D3
:103530009C9CF0019D9CF00D1124E055FD4F809165
:103540001C03808380911D038183411023C09C9CB8
:10355000F0019D9CF00D1124E055FD4F1382128265
:1035600020911301C601820F911D9C01220F331F70
:10357000280F391F205E3C4F9C9CF0019D9CF00D54
:103580001124E055FD4F4281618180810E940A161D
:103590008394BECF9C9C80019D9C100D11240055EE
:1035A0001D4FF80183818823F1F081508383859D2D
:1035B000C0011124648170E00E944E2DFB01FF27A1
:1035C000EF55FD4F8491E82FE719E59DC0011124C7
:1035D000B7010E944E2D80911E03689FB0011124F7
:1035E000F8017283BDCF0E94592EB5010E94622D51
:1035F0008C179D070CF0B4CFF2E0F61598F40E94FA
:10360000592EB5010E94622DF80180830E94592E27
:1036100020911D032695622F70E00E94622D280FD5
:10362000F80121839C9CF0019D9CF00D1124E05534
:10363000FD4F128280911E03893C58F088EC9C9CBF
:10364000F0019D9CF00D1124E055FD4F8483838390
:1036500087CF8431A0F784E1F2CFEBE1F3E0808102
:103660008E7F808360817181828193810E942C167C
:103670001092D6020E94B9160895EBE1F3E0808122
:103680008E7F80831092D6020E94B91608956091B1
:103690001B03669570E04BE050E086E191E00E94EC
:1036A000692E892B19F481E08093D6020E94A82507
:1036B0009093CF028093CE02089590911B0390FFC8
:1036C0002BC09170811129C0926090931B036623D7
:1036D00051F060911B0370911C0380911D03909128
:1036E0001E030E942C1660911B03669570E04BE050
:1036F00050E086E191E00E94692E892BA9F010929A
:10370000D60281E08093D10240911E0360911D0397
:1037100080911C030E94801808958B3210F09465EC
:10372000D4CF880F982BD1CF0E94471BEACF682FA8
:1037300090911B03969581E0890F8B3208F081E010
:103740000E945D1B089581E00E94971B0895682FD9
:1037500090911B0396958FEF890F09F48AE20E94DE
:103760005D1B089581E00E94A71B089561E00E94FF
:103770005D1B0895EBE1F3E0808181608083869595
:103780000E94B61B089580911B0380FF03C00E9416
:103790002D1B08950E94BA1B089560E00E945D1BD6
:1037A00008958091D40281112EC00E94B40D811120
:1037B00004C00E94470E0E944A160E94271660937A
:1037C0001B0370931C0380931D0390931E036E7F55
:1037D00061F40E944A160E94271660931B0370939F
:1037E0001C0380931D0390931E030E9418161092D1
:1037F000D60280911B0380FF03C086950E94CD1BDB
:1038000081E08093D4020895EBE1F3E08081816050
:10381000808386950E94CD1B089580911B0380FFB5
:1038200003C00E943D1B08950E94041C08950F933D
:103830001F93CF93DF938091D6028823B9F18091B3
:10384000D502E0911B03E695E81BE093D00282309D
:1038500091F5F0E0E356FD4FE491CE2FD0E008E47F
:1038600017E18091D102882361F01092D1020E9469
:10387000A8259093CF028093CE021092D30210928B
:10388000D2020E94A825E091CE02F091CF028E1BB9
:103890009F0B8F3F9F4750F4EC0FFD1FF093CF021B
:1038A000E093CE028EEC92E0F8010995DF91CF9182
:1038B0001F910F910895863049F4F0E0E656FD4FD0
:1038C000E491CE2FD0E00CE517E1CBCF893051F455
:1038D000E695F0E0E956FD4FE491CE2FD0E004E804
:1038E00018E1BFCF8F3051F4E695F0E0EC56FD4F74
:1038F000E491CE2FD0E001EC18E1B3CF853149F44B
:10390000F0E0EF56FD4FE491CE2FD0E001E319E156
:10391000A8CFC8E2D0E004EA19E1883109F4A1CFC8
:10392000833239F4EFE8F2E0C591D4910CE617E167
:1039300098CFC4EFD1E006E21AE1843209F491CFC6
:10394000C0EDD7E006E016E1853209F08ACF8E2F70
:1039500063E00E94342DE92FF0E0E457FD4FE4913D
:10396000CE2FD0E003E61AE17CCFFA01811101C02D
:10397000FB0109950895CF93DF93C82FD62F0E949E
:103980005A168C1748F00E945A168D1728F40E9478
:10399000A31BDF91CF9108958C2F0E94B61BF9CF06
:1039A0001F93CF93DF93EC01FB011281111110C023
:1039B0000E94C60C8272FE01E052F847E531F10523
:1039C00008F05EC0EF5FF04D0C94982D0E94C31B71
:1039D000812FDF91CF911F91089542EB5BE163EA64
:1039E0007BE10E94B51CF4CF43EA5BE162EB7BE133
:1039F000F8CF48E358E169E278E1F3CF49E258E1D2
:103A000068E378E1EECF4AE558E169E478E1E9CF8F
:103A100049E458E16AE578E1E4CF4CE758E16BE628
:103A200078E1DFCF4BE658E16CE778E1DACF42E9A5
:103A300056E16AE776E1D5CF4AE756E162E976E1F9
:103A4000D0CF81E00E94B61BC3CF65E082E00E9428
:103A5000BB1CBECF68E086E0FACF6EE089E0F7CF0E
:103A600064E18FE0F4CF67E185E1F1CF88E1EACF4F
:103A700062E289E1ECCF83E2E5CF6AE285E2E7CF5B
:103A800011E0A6CF539A4BB1477F5BB15860EFB7B7
:103A9000F8949B01220F331F260F371F280F391F61
:103AA0002817390741F4EFBF8FE594E00197F1F74C
:103AB00000C000000895DC016D91CD0178E05BB994
:103AC000000000C067FF4BB9660F000000C000C0D7
:103AD00000C04BB900C07A9591F7E2CF82E290E046
:103AE0000E948C2E833289F483E290E00E948C2E17
:103AF000873059F484E290E00E948C2E91E082306D
:103B000009F090E0892F8170089580E0FCCFCF9379
:103B1000C82F6FEF811163E282E290E00E94A02E35
:103B20006FEFC11167E083E290E00E94A02E6FEF7B
:103B3000C11162E084E290E00E94A02ECF9108952E
:103B4000089585E290E00E948C2E682F70E090E04E
:103B500080E008950895CF93C62F0E94AA1D6C2F70
:103B600085E290E00E94A02ECF91089580E00E940F
:103B7000871D60E070E0CB010E94AB1D0E943621E2
:103B80000E94052281E00E94871D08950E94A01DC9
:103B90000E94A11D0E94AA1D0E946E1D811102C0DB
:103BA0000E94B61D08950E940D1C08959C01FB0102
:103BB0008281882351F0A90157574038510530F4CC
:103BC000822F0E94152280E0089581E008952FEF52
:103BD000FC012083089580E00895CF93DF93EC01EA
:103BE00088818230E9F028F4813071F0DF91CF9143
:103BF00008958330F9F08430C9F70E94AC168983A8
:103C00000E94AF168A83F2CF0E94B2162FEF829FD6
:103C1000C00111246FEF70E00E944E2D6983E6CF42
:103C20000E946216882321F00E945A168983DECFF3
:103C300080E0FCCF0E949616F9CFCF93DF93EC0182
:103C40008881823021F128F4813069F0DF91CF91B1
:103C50000895833041F18430C9F70E94B216482F8D
:103C60006A81898111C089812FEF829FC00111244F
:103C70006FEF70E00E944E2DD62F0E94AF16C82F16
:103C80000E94AC164D2F6C2F0E948018DFCF8981C7
:103C9000811103C00E943D1BD9CF0E94041C898161
:103CA0000E94CD1BD3CF89810E94A816CFCFFC01E3
:103CB0009C012E5F3F4F9081983041F0993051F038
:103CC000973059F4C9010E941D1E0895C9010E9430
:103CD000ED1D08950E943F1608958FEF808308958B
:103CE000FC012181223019F40E94571E08950E9480
:103CF000E71D0895B0E0A0E0E0E8FEE10C94E02DBF
:103D0000EC01C62E0E94EB1D811110C0E881E1502C
:103D1000E331B8F4F0E0EA5EF04D0C94982D19828E
:103D20008CE08A836C2DCE010E946826CDB7DEB769
:103D3000E8E00C94FC2D89818230C1F028F48130B8
:103D400061F08FEF8883EECF833099F08430C9F72C
:103D50001A821B821C821D82E5CF0E94B4250E941C
:103D60009E2D6A837B838C839D83DCCF0E94A11D63
:103D7000F6CF8A81082F10E07E019EE0D92ED80E62
:103D80000530110578F6802F0E948A11F701938380
:103D900084830F5F1F4FF2E0EF0EF11CD012F0CFC3
:103DA000C1CF8981823031F0853059F68A810E94F5
:103DB000D31DB8CF6A817B818C819D810E949E2D0D
:103DC0000E94AB1DAFCF4B816A8189810E94F82090
:103DD0009827892798279D838C83A4CF2C813D81A8
:103DE0003227232732274B816A8189810E941A2139
:103DF00099CF0E94362196CF6C2DCE010E94701E65
:103E000091CF0E94B62189838DCF0E94B821982737
:103E1000892798279A83898385CF6B8170E0898170
:103E20009A81AE014C5F5F4F9827892798270E949F
:103E3000BB2178CF6B8170E089819A81AE014C5FA4
:103E40005F4F9827892798270E94E0216BCF0E9417
:103E5000052268CF0E94E620D6CF6B8170E0898171
:103E60009A81AE014C5F5F4F9827892798270E945F
:103E7000622158CF6B8170E089819A81AE014C5FDD
:103E80005F4F9827892798270E9486214BCFCF9391
:103E9000DF93EC01FB018281882309F4D2C09E01EB
:103EA00030572332310508F0B2C00E94CA0D9093FA
:103EB000060380930503FE01E150F047E232F1056D
:103EC00020F4E75DF04D0C94982D809105038160FE
:103ED0008093050393C08091060388608093060356
:103EE0008DC0809105038260F3CF809105038460CB
:103EF000EFCF809105038860EBCF8091060381604E
:103F0000EDCF809106038260E9CF80910503806147
:103F1000DFCF809105038062DBCF80910503806451
:103F2000D7CF0E942408809105038068D1CF80916B
:103F300005038C60CDCF809106038360CFCF809145
:103F400005038E7FC5CF80910603877FC7CF809101
:103F500005038D7FBDCF809105038B7FB9CF809105
:103F60000503877FB5CF809106038E7FB7CF809101
:103F700006038D7FB3CF809105038F7EA9CF8091FB
:103F800005038F7DA5CF809105038F7BA1CF0E9474
:103F90002408809105038F779BCF80910503837F51
:103FA00097CF809106038C7F99CF8091050382FB88
:103FB000992790F921E0922790FB82F990FB83F9F1
:103FC00087CF80910603982F909591708E7F892BD3
:103FD00090FB81F983CF90910503892F8F7B96FF0A
:103FE000806476CF0E94240890910503892F97FB67
:103FF00087F980586DCF81E00E944A0E80910503B9
:10400000909106030E94CF0D0E94240880E0DF916A
:10401000CF91089580E0F0CF90910503892F8F7E96
:1040200094FF806155CF90910503892F8E7F90FF7B
:1040300081604ECF90910603892F877F93FF886020
:104040004DCF81E0E4CFB0E0A0E0E9E2F0E20C94F3
:10405000E12DE82FF0E0E455FB4FD490282F269572
:104060002695269530E0F901E45BFA4F04918770BC
:1040700010E0082E02C0159507950A94E2F701702A
:104080001127F901E45CFA4FE490F12C082E02C0EC
:10409000F594E7940A94E2F791E0E922FF24F9010C
:1040A000E45DFA4FC491D0E002C0D595C7958A95DA
:1040B000E2F7C170DD270115110519F081EE0E94AC
:1040C0002305E114F10419F086EE0E9423058D2DDD
:1040D0000E94BB05E114F10419F086EE0E94700500
:1040E0000115110519F081EE0E947005CD2B19F014
:1040F0008CE20E94BB05CDB7DEB7E7E00C94FD2D46
:10410000EF92FF920F931F93CF93DF93EC01162F43
:104110000AE08881882309F454C0813009F04EC038
:104120008981813099F47E0122E0E20EF11C8A81BE
:104130000E94BB05E7012196812F815050F3EFE9E2
:10414000FFE03197F1F700C00000F7CF823041F473
:104150007E0182E0E80EF11C8A810E942305EACFED
:10416000833041F47E01E2E0EE0EF11C8A810E9470
:104170007005E0CF843011F02196DDCF2A812296A0
:1041800090E080E0AE014F5F5F4F2053330B2A3049
:10419000310548F0019778F2EFE9FFE03197F1F748
:1041A00000C00000F7CF089FB001099F700D1124D7
:1041B000C901860F971F2981EA01E4CF0E942320BD
:1041C000BACFCDB7DEB7E6E00C94FE2D84E00895BB
:1041D00050E0440F551F98E1699F400D511D112477
:1041E00098E7899F400D511D1124CA0186960895B4
:1041F0000F931F93CF93DF938430C8F46530B8F4E6
:104200004C30A8F40E94E8208C010E948C2EC82F0C
:10421000D0E0DC2FCC27C80101960E948C2E9E0195
:10422000282BC901DF91CF911F910F91089590E044
:1042300080E0F8CF0F931F93CF93DF93122F032FBC
:10424000843078F4653068F44C3058F40E94E820EB
:10425000EC01602F0E94A02E612FCE0101960E94DA
:10426000A02EDF91CF911F910F9108950F931F936F
:10427000CF93DF93D0E0C0E010E019C00E94A70305
:1042800021E030E08C171D0639F034F0402F612F0B
:104290008C2F0E94A9039C01402F612F8C2F0E941C
:1042A0001A210F5F0C3051F71F5F153011F000E03D
:1042B000E5CF2196C430D105F9F6DF91CF911F915A
:1042C0000F910895EF92FF920F931F93CF93DF9377
:1042D000EC018A017C01E60EF71ECE018696CE1512
:1042E000DF0529F4CDB7DEB7E6E00C94FE2DC03E25
:1042F00021E0D20740F40E948C2EF80180830F5FEA
:104300001F4F2196EACFF8011082F9CFB0E0A0E06C
:10431000ECE8F1E20C94E02D7C016A018C01060FBF
:10432000171FEC01CE018696C017D10729F4CDB72F
:10433000DEB7E8E00C94FC2DC03E21E0D20740F44B
:10434000FE01EE19FF09EC0DFD1D60810E94A02EFB
:104350002196E8CF843038F4653028F44C3018F4D6
:104360000E94F820089590E080E0089580E108958B
:104370008AEF91E00895EF92FF920F931F93CF93EE
:10438000DF93EC018A017C01E60EF71ECE018A5F05
:104390009D4FCE15DF0529F4CDB7DEB7E6E00C94CE
:1043A000FE2DCA3F21E0D20740F40E948C2EF80176
:1043B00080830F5F1F4F2196E9CFF8011082F9CF5C
:1043C000B0E0A0E0E6EEF1E20C94E02D7C016A01A1
:1043D0008C01060F171FEC01CE018A5F9D4FC0179D
:1043E000D10729F4CDB7DEB7E8E00C94FC2DCA3F25
:1043F00021E0D20740F4FE01EE19FF09EC0DFD1D8E
:1044000060810E94A02E2196E7CFCF93DF93C6E074
:10441000D2E060E0CE010E94A02E2196C11584E07A
:10442000D807B9F7DF91CF910895A8E0B0E0EBE1AC
:10443000F2E20C94DE2DF82E8FE08F1508F46EC09A
:104440008FEF93E00E948C2E811168C006E012E08D
:10445000F11035C0FE0131966F0188E011928A9506
:10446000E9F77801FFEFEF1AFF0AC8010E948C2ECE
:1044700089831A82882309F451C08130D1F458010C
:1044800082E0A80EB11CC7010E948C2E8A8388236B
:1044900009F444C09FEF980F9330F0F4780193E053
:1044A000E90EF11CC5010E948C2E8B838823B1F18B
:1044B0001C8260E0C6010E9480208701D2CF0115D6
:1044C00094E0190759F1C8010E948C2E811101C096
:1044D000FA940F5F1F4FBCCF7501843051F702E093
:1044E00010E07501EFEFEE1AFE0AC5010E948C2E56
:1044F000F601E00FF11F8083882381F08C3741F4AF
:10450000E2E0F0E0EC0FFD1FE00FF11F1082D1CFD1
:104510000F5F1F4F57010730110519F72896EAE082
:104520000C94FA2DCF93DF93EB0186319C4711F564
:104530000E94C60C9A81992399F08A7A91E009F435
:1045400090E09093D702811109C089E20E949E0CED
:104550000E94070D80E0DF91CF91089585E3F6CFAB
:104560008091D702811104C089E20E94A60CF0CF8D
:1045700085E3FBCF81E0EFCF0F931F93CF93DF93C2
:10458000C42FD22FFC0182818823C9F04093DA0224
:104590000E94A8259093D9028093D80280E28C0FC4
:1045A000883040F4C77081E001C0880FCA95EAF7EF
:1045B0000E94C405DF91CF911F910F910895109132
:1045C000DA02141332C08091D8029091D9020E946D
:1045D000C025883C910548F5C0E2CD0F1D17B9F004
:1045E00080E2810F883040F4177081E001C0880FAD
:1045F0001A95EAF70E94CB05C83048F481E09D2F58
:10460000977001C0880F9A95EAF70E94C405802F21
:104610000E94BB05C83070F6D77081E001C0880FDA
:10462000DA95EAF70E94CB05C5CF80E28C0F88307F
:1046300008F6C77081E001C0880FCA95EAF7F2CF8B
:104640000F93DB0188519C4787309105A0F5FC0151
:10465000E55BF04D0C94982D06E221EE41EE6AE107
:104660007CE7CD010E94BC2280E00F91089507E213
:1046700025EE45EE6BE17CE7F4CF06E221EE40EE5D
:1046800068E17CE7EECF07E225EE44EE69E17CE7E6
:10469000E8CF06E221EE42EE6CE17CE7E2CF07E2F2
:1046A00025EE46EE6DE17CE7DCCF08E221E045EE49
:1046B0006EE17CE7D6CF12968C91882319F0109288
:1046C000DA02D3CF81E0D1CF1F93CF93DF93873727
:1046D0002CE7920759F0C1E088379C47E1F4FB01D1
:1046E000C281CC2371F10E94A72306C0FB01C281C5
:1046F000CC23B1F00E94A4230E94A2080E94AA2306
:10470000D82F0E94A723C82F0E94A4234D2F6C2FBF
:104710000E94CA09C0E08C2FDF91CF911F910895AC
:104720000E94A4230E94AE080E94AA23182F0E9470
:10473000A723D82F0E94A423412F6D2F0E94CA09BE
:10474000EACF0E94A723EECF8091230108958091A4
:10475000220108958091210108959093EB018093A7
:10476000EA0108959093E0028093DF020895E091BA
:10477000DF02F091E002309729F00190F081E02D06
:104780000995089580E00895E091DF02F091E0023C
:10479000309799F020912C01222359F020910503A4
:1047A00027FF07C0DC012C9111962C93119726E06E
:1047B0002C930280F381E02D09950895E091DF02AA
:1047C000F091E002309739F022E0DC012C93048074
:1047D000F581E02D09950895A3E0B0E0E2EFF3E262
:1047E0000C94E62D2091DD023091DE022817390766
:1047F000A1F09093DE028093DD02E091DF02F09160
:10480000E002309751F023E029839B838A8306805E
:10481000F781E02DCE01019609952396E2E00C94F4
:10482000022EA3E0B0E0E7E1F4E20C94E62D209143
:10483000DB023091DC0228173907A1F09093DC02EB
:104840008093DB02E091DF02F091E002309751F0BB
:1048500024E029839B838A830680F781E02DCE01A3
:10486000019609952396E2E00C94022EFC01329603
:1048700080912C01882321F0809105039EE187FF20
:1048800096E080E0915008F4089521912223D1F31D
:104890008F5FF8CF662301F120912C012223F1F0E4
:1048A0002091050327FF1AC0462F46954695469549
:1048B0004E3190F4677021E030E002C0220F331FC8
:1048C0006A95E2F7840F911DFC01828190E0282314
:1048D000392381E0232B69F480E00895FC013296AE
:1048E00008962191261721F0E817F907D1F7F4CFA0
:1048F00081E008959C01FC0132969FEF80E0419198
:10490000461751F09F3F19F4411101C0982F8F5F56
:104910008630A9F79F3F09F40895290F311D97FDAF
:104920003A95F90162830895FC0132960896219127
:10493000261303C0DF0111971C92E817F907B9F796
:104940000895E62FE695E695E695EE3168F4E80FD2
:10495000F92FF11D677021E030E001C0220F6A9548
:10496000EAF78281822B82830895E62FE695E69509
:10497000E695EE3170F4E80FF92FF11D677021E034
:1049800030E001C0220F6A95EAF720958281282342
:104990002283089520912C01222339F020910503D0
:1049A00027FF03C00E94A12408950E947A2408953D
:1049B00020912C01222339F02091050327FF03C009
:1049C0000E94B52408950E9494240895FC01329613
:1049D00080912C01882351F08091050387FF06C048
:1049E0008EE1DF011D928A95E9F7089586E0F9CFFF
:1049F00046E050E00E94762E21E0892B09F420E069
:104A0000822F089508950E9402250895811106C0FD
:104A100081E08093E1020E940325089582E0F9CFAE
:104A200083E08093E1020E94032508950E940625F9
:104A3000089581E08093E1020E94032508950E9479
:104A400019250895089508950E942325089508952D
:104A500008950E9422250895CF930E9427250E9441
:104A600055120E942825C0E08C2F0E948A11892BA4
:104A700031F4CF5FC530C1F780E0CF91089581E078
:104A8000FCCF85B7806885BF85B7806885BF0895EE
:104A90001F921FB61F9211248F939F93AF93BF93C2
:104AA0008091E202811113C080913203909133030F
:104AB000A0913403B09135034196A11DB11D80939F
:104AC000320390933303A0933403B0933503BF9123
:104AD000AF919F918F911F901FBE1F90189580914D
:104AE0003A03843031F10E9495041092E20288E189
:104AF00090E020E40FB6F894A895809360000FBE74
:104B00002093600083B7817F846083BF83B7816017
:104B100083BF7894889583B78E7F83BF0FB6F89450
:104B2000A895809160008861809360001092600079
:104B30000FBE08950E9424080E949A04089582E0FE
:104B400084BD93E095BD9AEF97BD80936E00089564
:104B50002FB7F8948091320390913303A0913403DE
:104B6000B09135032FBF08952FB7F89460913203A9
:104B70007091330380913403909135032FBF0895D2
:104B80009C014FB7F8948091320390913303A09128
:104B90003403B09135034FBF821B930B0895789473
:104BA0001F921FB61F9211248F939F93AF93BF93B1
:104BB0008091320390913303A0913403B091350377
:104BC0000196A11DB11D8093320390933303A093EE
:104BD0003403B0933503BF91AF919F918F911F9094
:104BE0001FBE1F90189587E797E790930108809361
:104BF000000888E19AE00FB6F894A89580936000C9
:104C00000FBE90936000FFCF88E19AE00FB6F89452
:104C1000A895809360000FBE90936000FFCF8091B5
:104C2000030308959B01BA0190913A039430E9F48B
:104C30008F708093E9009FEF8091E800915085FD8F
:104C400006C085ED8A95F1F700009111F5CF8091AE
:104C5000E80085FF0AC050E040E0C9010E945E28DC
:104C60008091E8008E778093E800089543E050E05B
:104C7000BC0184E00E941226089546E050E0BC0189
:104C800084E00E9412260895CF93DF93EC01809177
:104C90002C01811111C048E050E0BE0181E00E946A
:104CA000122680E2FE01A3EEB2E001900D928A95F9
:104CB000E1F7DF91CF9108958091050387FF05C04B
:104CC00040E284E050E0BE01EACF48E081E0FACF64
:104CD000603231F440E250E0BC0182E00E941226D2
:104CE000089580913903811109C00E943D2A0E94D4
:104CF0009A2A8091E20084608093E20008951092E5
:104D0000390308950E94192508956091360381E0C2
:104D1000611101C080E00E941025089590913A032E
:104D200081E0943009F080E0609136030E941625FE
:104D3000089542E061EC81E00E94B92942E261EC11
:104D400084E00E94B92942E261EC82E00E94B92924
:104D500042E260EC83E00E94B92990913A0381E03D
:104D6000943009F080E0609136030E940625089592
:104D700080913C03833009F463C030F48130E1F169
:104D8000823009F4A0C008958A3009F48CC08B30B9
:104D900009F471C0893009F052C080913B0381321F
:104DA00009F04DC080913F0390914003009719F0A6
:104DB000029709F044C08091E800877F8093E80063
:104DC0008091E80082FF37C09091F3008091F2005B
:104DD000029731F48091F100813011F0863021F496
:104DE0008091F100809303038091E8008B7780939A
:104DF000E8000E94ED2923C080913B03813AF9F439
:104E00008091E800877F8093E80080913F03909134
:104E10004003892B61F460E283EE92E070E00E942F
:104E2000FC288091E8008B778093E800089560E08B
:104E300090E080E0F3CF80913A038111C1CF0895D3
:104E400080913B03813AD9F780913F0390914003D1
:104E5000892BA9F78091E800877F8093E8008091F3
:104E6000E80080FFFCCF80912C018093F1008091BD
:104E7000E8008E77BCCF80913B03813201F78091AF
:104E80003F0390914003892BD1F68091E800877F02
:104E90008093E8000E94ED2980913D0380932C01CE
:104EA0000E942408089580913B03813241F680914D
:104EB000E800877F8093E8000E94ED2980913E03FF
:104EC00080930403089580913B03813A09F0B7CFA2
:104ED0008091E800877F8093E8008091E80080FF60
:104EE000FCCF80910403C1CF84B7877F84BF0FB606
:104EF000F894A8958091600088618093600010927A
:104F000060000FBE80E890E00FB6F89480936100D7
:104F1000909361000FBE0E941F2508950E943D2AB4
:104F20000E949A2AE2EEF0E0808184608083789487
:104F30000E94192D089584E291E00E94B223089501
:104F400080913A03853031F480913A03853019F02D
:104F50000E949A2508950E946F2580913803882326
:104F600099F30E942C25882379F30E9448280E94F7
:104F70002408EACFA0E2B0E0E0ECF7E20C94E62DE2
:104F800080913A03843009F583E08093E9008091B1
:104F9000E80082FF1AC08091E80090E085FF09C018
:104FA00050E040E060E270E0CE0101960E94AD2842
:104FB00091E08091E8008B778093E800992329F0B5
:104FC00060E2CE0101960E947A1EA096E2E00C9467
:104FD000022E9A0140914103509142030E94F12711
:104FE0000895492F55274330510521F168F4413088
:104FF000510509F443C04230510509F444C090E022
:1050000080E050E040E026C04132510551F142328B
:105010005105A9F76330710590F7FB01EE0FFF1FF3
:10502000E252FE4F4081518165527E4FFB018081EB
:1050300090E010C099278130910581F0009729F008
:105040000297E9F6ECE5F5E002C0EAE7F5E08491C5
:1050500090E0AF01F901518340830895E0E7F5E066
:10506000F6CF6330710558F6660F771FFB01EC51E0
:10507000FE4F4081518189E090E0ECCF82E190E0E9
:1050800049ED55E0E7CF8BE590E04EE755E0E2CF04
:1050900080E189BD82E189BD09B400FEFDCF809128
:1050A000D8008F7D8093D8008091E000826080934B
:1050B000E0008091E00081FDFCCF0895AF92BF92A7
:1050C000CF92DF92FF920F931F93CF93DF936C01E8
:1050D000EB018A010E940C2AF82E811123C00115D0
:1050E000110539F0F80180819181C81BD90BC80ED8
:1050F000D91EB12CA12C2097A9F08091E80085FD44
:1051000022C08091E8008E778093E8000115110598
:10511000A1F0F80180819181A80EB91EB182A08210
:1051200085E0F82E8F2DDF91CF911F910F91FF9089
:10513000DF90CF90BF90AF9008950E940C2A8823F3
:10514000D1F2F82EEFCFF60181916F018093F1003B
:105150002197FFEFAF1ABF0ACECFAF92BF92CF9287
:10516000DF92FF920F931F93CF93DF936C01EB01BC
:105170008A010E940C2AF82E811123C00115110505
:1051800039F0F80180819181C81BD90BC80ED91E56
:10519000B12CA12C2097A9F08091E80085FD22C0B8
:1051A0008091E8008B778093E80001151105A1F04C
:1051B000F80180819181A80EB91EB182A08285E09C
:1051C000F82E8F2DDF91CF911F910F91FF90DF90DF
:1051D000CF90BF90AF9008950E940C2A8823D1F2FF
:1051E000F82EEFCF8091F100F60181936F012197A6
:1051F000FFEFAF1ABF0ACECFFC018091410390911F
:10520000420386179707A0F06115710529F4909164
:10521000E8009E779093E80090E06115710551F4E5
:10522000911108C08091E80082FF34C080E00895A9
:10523000BC01F2CF80913A038823C1F18530C1F1DE
:105240008091E80083FD30C08091E80082FDEACFC4
:105250008091E80080FFE1CF8091F3002091F2007F
:10526000382F6115710519F02830310558F091E09B
:105270002830310509F090E02091E8002E77209346
:10528000E800CBCF81918093F100615071092F5FCD
:105290003F4FE7CF80913A03882341F0853041F0BA
:1052A0008091E80083FFBECF81E0089582E00895F9
:1052B00083E00895FC018091410390914203861799
:1052C0009707A0F06115710529F48091E8008E77A9
:1052D0008093E80090E06115710551F4911108C0C8
:1052E0008091E80082FF35C080E00895BC01F2CFD4
:1052F00080913A038823C9F18530C9F18091E80093
:1053000083FD31C08091E80082FDEACF8091E80002
:1053100080FFE1CF8091F3002091F200382F6115DA
:10532000710519F02830310558F091E02830310529
:1053300009F090E08091E8008E778093E800CBCF71
:1053400084918093F1003196615071092F5F3F4F36
:10535000E6CF80913A03882341F0853041F0809177
:10536000E80083FFBDCF81E0089582E0089583E0E7
:105370000895982F973028F08F708093E90081E08E
:1053800008959093E900242F762F50E0981731F07C
:105390007091EC002091ED005091F00021FD02C0D1
:1053A0009F5FE8CF3091EB003E7F3093EB00309170
:1053B000ED003D7F3093ED003091EB003160309394
:1053C000EB007093EC002093ED005093F0002091DF
:1053D000EE0027FDE5CF80E0089580913B0387FF35
:1053E00013C08091E80082FF06C08091E8008B77AF
:1053F0008093E80004C080913A038111F2CF0895B0
:1054000080913A038823D9F38091E80080FFF8CF98
:105410008091E8008E77ECCF2091E4003091E50098
:1054200095E6A9012091EC00822F817020FF06C033
:105430008091E80080FF06C080E008952091E80098
:1054400022FD1AC080913A03882389F0853089F0C3
:105450008091EB0085FD0FC02091E4003091E500C4
:1054600042175307F9F29150E1F684E0089582E083
:10547000089583E0089581E008950E94AC2A0E9477
:10548000B42AE0EEF0E0808181608083E8EDF0E016
:1054900080818F77808319BCA7EDB0E08C918E7FDF
:1054A0008C9380818F7E80831092390308950F93AF
:1054B0001F93CF93DF930E94AC2A0E94B42AC8EDB9
:1054C000D0E088818F77888388818068888388810D
:1054D0008F7D888319BC10923A0310923603109284
:1054E00038031092370300EE10E0F80180818B7FC3
:1054F000808388818160888342E060E080E00E9450
:10550000B929E1EEF0E080818E7F8083E2EEF0E069
:10551000808181608083808188608083F8018081C0
:105520008E7F8083888180618883DF91CF911F91F6
:105530000F910895E8EDF0E080818F7E8083E7EDA4
:10554000F0E080818160808384E082BF81E080938D
:1055500039030E94572A0895E8EDF0E080818E7F9C
:1055600080831092E20008951092DA001092E10018
:1055700008951F920F920FB60F9211242F933F930D
:105580004F935F936F937F938F939F93AF93BF934B
:10559000EF93FF938091E10082FF0BC08091E200C6
:1055A00082FF07C08091E1008B7F8093E1000E9421
:1055B000182D8091DA0080FF19C08091D80080FFFB
:1055C00015C08091DA008E7F8093DA008091D90037
:1055D00080FF96C080E189BD82E189BD09B400FEEB
:1055E000FDCF81E080933A030E9471268091E10013
:1055F00080FF19C08091E20080FF15C08091E20019
:105600008E7F8093E2008091E20080618093E200CF
:105610008091D80080628093D80019BC85E0809387
:105620003A030E9485268091E10084FF2BC080917F
:10563000E20084FF27C080E189BD82E189BD89B590
:10564000982F917080FFFBCF8091D8008F7D809341
:10565000D8008091E1008F7E8093E1008091E2008C
:105660008F7E8093E2008091E20081608093E2006F
:1056700080913603882309F449C084E080933A037B
:105680000E948E268091E10083FF29C08091E20074
:1056900083FF25C08091E100877F8093E10082E055
:1056A00080933A03109236038091E1008E7F8093BD
:1056B000E1008091E2008E7F8093E2008091E20021
:1056C00080618093E20042E060E080E00E94B929BE
:1056D0008091F00088608093F0000E948226FF9104
:1056E000EF91BF91AF919F918F917F916F915F915A
:1056F0004F913F912F910F900FBE0F901F901895D3
:1057000019BC10923A030E947F2670CF8091E3006B
:1057100087FD93E090933A03B3CF1F920F920FB699
:105720000F9211242F933F934F935F936F937F9327
:105730008F939F93AF93BF93CF93DF93EF93FF9399
:10574000D091E900DF708091EC00C82FC17080FD1E
:10575000C0E81092E9008091F000877F8093F0000C
:1057600078940E94D12B1092E9008091F00088601B
:105770008093F000CD2BCF70C093E900FF91EF91A3
:10578000DF91CF91BF91AF919F918F917F916F9159
:105790005F914F913F912F910F900FBE0F901F90EF
:1057A0001895AAE2B0E0E7EDFBE20C94E52D8BE35F
:1057B00093E02091F100FC012193CF01F3E08334C9
:1057C0009F07B9F70E94B8268091E80083FF1EC1A9
:1057D00080913B0390913C039A3008F017C1E92F68
:1057E000F0E0EE5AF04D0C94982D803899F0823804
:1057F00009F00CC180913F038F70873008F006C11B
:105800008093E9008091EB0085FB882780F9109256
:10581000E90006C0809137039091380391118260AE
:105820009091E800977F9093E8008093F1001092A8
:10583000F1008091E8008E77E5C0882309F4D3C099
:10584000823009F0E3C080913D038111D6C0809180
:105850003F038F702FEF280F263008F0D7C08093BA
:10586000E9002091EB0020FFC8C0933031F4809113
:10587000EB0080628093EB00C0C09091EB009061E0
:105880009093EB0021E030E001C0220F8A95EAF707
:105890002093EA001092EA008091EB008860EACF42
:1058A0008111B4C010913D031F778091E30080788F
:1058B000812B8093E3008091E800877F8093E8004C
:1058C0000E94ED298091E80080FFFCCF8091E300E9
:1058D00080688093E30082E0111183E080933A03B3
:1058E00095C08058823008F091C080913D0390911E
:1058F0003E038C3D23E09207A1F583E08A838AE290
:1059000089834FB7F894DE01139620E03EE051E220
:10591000E32FF0E050935700E49120FF03C0E2959D
:10592000EF703F5FEF708E2F90E0EA30C0F0C796C7
:105930008D939D932F5F243159F74FBF8091E800DD
:10594000877F8093E8006AE270E0CE0101960E94B2
:10595000FC288091E8008B778093E80057C0C096C0
:10596000E7CF60913F0370914003AE014F5F5F4FFF
:105970000E94E927BC01892B09F448C09091E800F6
:10598000977F9093E80089819A810E945A29E1CFFC
:105990008038E1F58091E800877F8093E80080916E
:1059A00036038093F10045CF811130C090913D03C3
:1059B000923060F58091E800877F8093E8009093B3
:1059C00036030E94ED2980913603882311F084E08C
:1059D00005C08091E30087FDFACF81E080933A0310
:1059E0000E94992613C080913D03813079F481E0B3
:1059F000933009F080E0809338031092E9008091A1
:105A0000E800877F8093E8000E94ED298091E800FC
:105A100083FF0AC08091E800877F8093E80080912F
:105A2000EB0080628093EB00AA96E3E00C94012ED9
:105A30000895CF9380913A038823A1F0C091E900A3
:105A4000CF709091EC00892F817090FD80E8C82B79
:105A50001092E9008091E80083FD0E94D12BCF7065
:105A6000C093E900CF910895991B79E004C0991F74
:105A7000961708F0961B881F7A95C9F780950895A8
:105A800087FB082E062687FD819567FD61950E949C
:105A9000342D0EF4919507FC81950895AA1BBB1B2C
:105AA00051E107C0AA1FBB1FA617B70710F0A61B1E
:105AB000B70B881F991F5A95A9F780959095BC013F
:105AC000CD01089597FB072E16F4009407D077FDBB
:105AD00009D00E944E2D07FC05D03EF4909581958B
