:100000000C9489030C94A6030C94A6030C94A603E9
:100010000C94A6030C94A6030C94A6030C94A603BC
:100020000C94A6030C94A6030C94B92B0C948C2C62
:100030000C9455260C94A6030C94A6030C94A603CA
:100040000C94A6030C94A6030C94A6030C94A6038C
:100050000C94A6030C94DC260C94A6030C94A60323
:100060000C94A6030C94A6030C94A6030C94A6036C
:100070000C94A6030C94A6030C94A6030C94A6035C
:100080000C94A6030C94A6030C94A6030C94A6034C
:100090000C94A6030C94A6030C94A6030C94A6033C
:1000A0000C94A6030C94A6030C94A60329001E002E
:1000B0001F0020002100220023002400250026002C
:1000C00027002A002B0014001A0008001500170052
:1000D0001C0018000C00120013002D003900040051
:1000E0001600070009000A000B000D000E000F00AB
:1000F00028000000E1001D001B000600190005009B
:100100001100100050004F00E5000000E000650005
:10011000E20000002C0000000000E6002152000078
:100120000000000029003A003B003C003D003E007A
:100130003F00400041004200430044002B001400F7
:100140001A000800150017001C0018000C0012000F
:1001500013003800390004001600070009000A00E7
:100160000B000D000E000F0028000000E1002378B6
:1001700024782778287821782278100036003700F4
:10018000E5000000E0006500E20000002C00000037
:100190000000E600E7000000000000000100010090
:1001A0000100010001000100010001000100010047
:1001B0000100010001000100010001000100010037
:1001C0000100010001000100010001000100010027
:1001D0000100010001000100010001000100010017
:1001E0000100000001000100010001000100010008
:1001F00001000100010001000100000001000100F8
:1002000001000000010000000000010001000000EA
:1002100000000000010001000100010001000100D8
:1002200001000100010001000100010001000100C6
:1002300001000100010001000100010001000100B6
:1002400001000100010001000100010001000100A6
:100250000100010001000100010000000100010097
:100260000100010001000100010001000100010086
:100270000100000001000100010000000100000079
:100280000000010001000000000000001E0F05003A
:10029000047F3F1F643214643214783C1E1E140A1B
:1002A000052223252628292A2C2D2F3032333536B6
:1002B000383A3B3D3E4042434547494A4C4E5051F7
:1002C000535557595A5C5E6062646668696B6D6F1E
:1002D00071737577797B7D7F81838587898A8C8E21
:1002E00090929496989A9C9E9FA1A3A5A7A8AAAC29
:1002F000AEAFB1B3B4B6B8B9BBBCBEBFC1C2C3C563
:10030000C6C7C9CACBCCCDCED0D1D2D2D3D4D5D604
:10031000D7D7D8D9D9DADADBDBDBDCDCDCDCDCDD37
:10032000DDDDDDDCDCDCDCDCDBDBDBDADAD9D9D81B
:10033000D7D7D6D5D4D3D2D2D1D0CECDCCCBCAC9B3
:10034000C7C6C5C3C2C1BFBEBCBBB9B8B6B4B3B1E2
:10035000AFAEACAAA8A7A5A3A19F9E9C9A9896947D
:1003600092908E8C8A89878583817F7D7B79777552
:1003700073716F6D6B6968666462605E5C5A595731
:10038000555351504E4C4A4947454342403E3D3BF0
:100390003A3836353332302F2D2C2A29282625237A
:1003A00022FFAA7F5540000102030405000101015C
:1003B0000101010101010202020202020202020322
:1003C00003030303030303040404040404040505F2
:1003D00005050506060606060707070707080808B5
:1003E00008090909090A0A0A0B0B0B0C0C0C0D0D64
:1003F0000D0E0E0E0F0F0F101011111112121313FC
:100400001414151516161717181819191A1A1B1B74
:100410001C1D1D1E1E1F20202122222324242526D0
:1004200026272829292A2B2C2D2D2E2F3031323208
:10043000333435363738393A3B3C3D3E3F40414214
:10044000434445464748494A4C4D4E4F50515354FA
:10045000555658595A5B5D5E5F61626465666869AE
:100460006B6C6D6F7072737577787A7B7D7E80822E
:10047000838587888A8C8E8F91939596989A9C9E77
:10048000A0A2A3A5A7A9ABADAFB1B3B5B7BABCBE87
:10049000C0C2C4C6C9CBCDCFD1D4D6D8DBDDDFE254
:1004A000E4E7E9EBEEF0F3F5F8FAFDFF00000000F9
:1004B000000000002A2B28000000000000000000BF
:1004C0000000000000000029000000002C1E342065
:1004D000212224342627252E362D3738271E1F208B
:1004E0002122232425263333362E37381F040506D0
:1004F0000708090A0B0C0D0E0F1011121314151614
:100500001718191A1B1C1D2F3130232D3504050611
:100510000708090A0B0C0D0E0F10111213141516F3
:100520001718191A1B1C1D2F3130354C0000000004
:1005300000000000000000000000000000000000BB
:1005400000000000000000000000000000000000AB
:100550007E0F00D4FFFFFFC7000000781203720077
:100560006F0077006C006F007700350032000000EC
:100570001203730061006D003100640061007200BD
:10058000650000000403090409025B00030100A0E8
:10059000FA09040000010301010009211101000111
:1005A0002244000705810308000109040100020339
:1005B0000000000921110100012222000705820329
:1005C00020000107050303200001090402000103C4
:1005D00000000009211101000122B6000705840373
:1005E0002000011201000200000008313A0000154D
:1005F00001010200010660FF0961A1010962150005
:1006000026FF009520750881020963150026FF006A
:10061000952075089102C005010902A10185020912
:1006200001A1000509190129081500250195087582
:100630000181020501093009311581257F95027577
:1006400008810609381581257F9501750881060501
:100650000C0A38021581257F950175088106C0C0F6
:1006600005010980A101850319012AB7001501269A
:10067000B700950175108100C0050C0901A1018525
:100680000419012AA002150126A002950175108106
:1006900000C005010906A1018506050719E029E743
:1006A000150025019508750181020507190029EF3C
:1006B0001500250195F0750181020508190129052C
:1006C000950575019102950175039101C005010918
:1006D00006A101050719E029E71500250195087510
:1006E0000181029501750881010507190029FF158F
:1006F0000026FF00950675088100050819012905E7
:10070000150025019505750191029501750391016B
:10071000C00011241FBECFEFDAE0DEBFCDBF11E075
:10072000A0E0B1E0E6E7F1E602C005900D92AC3E34
:10073000B107D9F723E0ACEEB1E001C01D92AA34B5
:10074000B207E1F70E94DE120C943F300C940000D7
:100750000E940C1A86E00E94C71908958430B8F4EC
:100760006530A8F44C3098F4E42FF0E09CE0699FE9
:10077000E00DF11D11249CE3899FE00DF11D112472
:10078000EE0FFF1FE455FF4F85919491089581E08E
:1007900090E0089581E008950E94CA03089581E0E1
:1007A000089581E008950E94D103089508950E945C
:1007B000D6030895A6E0B0E0E0EEF3E00C94E32E5B
:1007C00049835A839E833091F30189819A81311143
:1007D0001AC03E81311599F0211589F00E946709F0
:1007E000182F682F89819A810E94430969817A8133
:1007F000812F0E947F102696E3E00C94FF2E0E942A
:100800005509182FF3CF0E94670969817A81F1CFCA
:10081000FC01262F40815181628173818481958101
:100820000E94DA030895CF93DF93D82FC92F61E098
:100830000E9408046D2F7C2F0E94CC03DF91CF9182
:100840000895CF93DF93D82FC92F60E00E9408044A
:100850006D2F7C2F0E94D703DF91CF91089581E007
:1008600008950E942F040895CF93C82F0E94310845
:100870008C2F0E9431042FEF84E39CE021508040B4
:100880009040E1F700C00000CF91089581E00E9400
:1008900034040E940027089580E00E9434040E94DE
:1008A000112708950F931F93CF93DF938C0161E07D
:1008B0000E940804EC01F801858181110E94C91A87
:1008C000B801CE010E940423811509F449C0B80182
:1008D000CE010E94D303811509F442C0B801CE01B4
:1008E0000E941C228115E1F1B801CE010E94611D18
:1008F0008115B1F1B801CE010E94361D811581F13B
:10090000B801CE010E94E91A811551F1B801CE015A
:100910000E945E22811521F1F8018581811581F007
:10092000CA35FCE7DF0739F178F4C130ECE7DE07C0
:10093000F9F0C330FCE7DF07C9F0C115DC4771F0FF
:10094000C8010E94CF030DC0CB35ECE7DE07B1F044
:10095000CC35DC47A9F70E94B40DF2CF0E944604C3
:1009600080E0DF91CF911F910F9108950E94C50DF6
:100970000E944C04F5CF0E94BD0DE2CF0E94C10D34
:10098000DFCF0E9431260E94E10408950E94E50411
:100990000E943626089581E008950895CF93DF934D
:1009A000D82F0E94CB04C82F811519F08D2F0E94DB
:1009B000CD048C2FDF91CF91089508950E94CE042D
:1009C000089580E00E94DE0408950E946C240E9435
:1009D000DE040895CF930E946C24C82F8091EE010D
:1009E0008C1779F0C093EE010E94C1266093EF014D
:1009F0007093F0018093F1019093F2018C2F0E948B
:100A0000DE04CF910895ADE0B0E0E9E0F5E00C94AC
:100A1000E42E488759876A877B878C879D87911149
:100A20000E94C00C1F8286E0FE013896DE011196FE
:100A300001900D928A95E1F78D8181110DC0298178
:100A40003A814B815C816D817E818F810E940A0C8D
:100A50002D96E2E00C94002FCE0101960E94130423
:100A60008111EDCFF5CFFC018481813021F48081AB
:100A700091810E9490090895611529F00E94C71E76
:100A80000E94881F08950E94101FFACFCF93C82F8D
:100A9000811599F08CEF8C0F813A88F48C2F0E948D
:100AA0001025811529F08C2F0E94B5250E94560D26
:100AB0008C2F0E949E250E94560DCF91089580E2B2
:100AC0008C0F883048F4C77081E001C0880FCA9548
:100AD000EAF70E94A10CEFCF8BE58C0F833038F43E
:100AE0002C2F2452330BC9010E94A224E6CFE8E543
:100AF000EC0FEB3150F4F0E0EE0FFF1FEF5CFE4F18
:100B0000808191810E94C824D8CF83E38C0F8331E8
:100B1000A0F661E08C2F0E943C05CFCF811581F1BA
:100B20009CEF980F913A28F40E94B5250E94560D2B
:100B3000089590E2980F983050F4877091E001C0CA
:100B4000990F8A95EAF7892F0E94A70CEFCF9BE5B2
:100B5000980F933028F480E090E00E94A22408953A
:100B600098E5980F9B3128F480E090E00E94C8241B
:100B7000089593E3980F933118F460E00E943C05C8
:100B800008950F931F93CF93C82F8B010E944605A2
:100B90000115110539F48C2F0E948E05CF911F91FC
:100BA0000F9108958FE99FE00197F1F700C00000D1
:100BB00001501109EDCF60E570E0893311F060E07C
:100BC00070E00E94C1050895811521F00E94A10CDA
:100BD0000E94560D0895811521F00E94A70C0E94D5
:100BE000560D0895A0E0B0E0E8EFF5E00C94DE2E9D
:100BF0006C01D62FC72FFC011581068102950F705D
:100C00000E94960CE82E8115F9F0E12E1115E1F005
:100C10008C2F807F803461F080E28D0F8830F0F07F
:100C20008C2F807E803221F4D230C0F00115B1F0DB
:100C300080910A0382FF12C082E00E94870D0E9409
:100C4000960C91E0E82EE926EC2FE295EF70C03C7F
:100C5000B0F5F0E0EF5BFF4C0C949E2EE12CF4CF4E
:100C60000C2F0F70C03110F00295007F111599F014
:100C7000011559F080E28D0F883010F0D11107C0B6
:100C8000802F0E94A10C0E94560D8D2F51C0802FE5
:100C90000E94B20CF8CF8D2F0E948E05011579F0BD
:100CA00080E28D0F883010F0D11104C0802F0E9497
:100CB000A70C03C0802F0E94B80C0E94560DE114AF
:100CC00089F00E94920C80FD0DC0F60115820E94F1
:100CD0008C0C0E94B208C6010E94F8070E948C0C7E
:100CE0000E94BE08CDB7DEB7E8E00C94FA2EFC2FC8
:100CF000FF70FF2EC07FC03219F0F29480EFF8220F
:100D0000D11541F0D130D1F1111509F444C00115CC
:100D1000F1F0BBCF80910A0382FD15C0111559F087
:100D2000F11429F08F2D0E94A10C0E94560D80E035
:100D30000E944605C4CF80E00E948E05F11409F49C
:100D4000BECF8F2DB4CF111569F0011104C08F2DC6
:100D50000E94E405B4CF013009F0B1CF8F2D0E947D
:100D6000D80CADCF0111ABCF8F2D0E94EB058F2D8D
:100D70000E94E40C8F2D0E94C70CA1CF111521F009
:100D8000063008F09CCFE3CF053008F098CF8F2DC8
:100D90000E94EB0594CF0115D1F3D93349F42FEF1D
:100DA00087EE93E0215080409040E1F700C00000C2
:100DB0008D2F0E948E0583CF8C2F8695869583700C
:100DC000811569F0813009F07ACF8D2F9C2F9370B7
:100DD000111102C080E090E00E94C82470CF8D2FD6
:100DE0009C2F9370111102C080E090E00E94A22419
:100DF00066CF612F8D2F0E943C0561CF8C2F8370B1
:100E0000811134C0111124C04D2F42954695477071
:100E1000440F440F8D2F8F70042E01C0880F0A9449
:100E2000EAF72D2F2071D4FF07C02FE030E001C07A
:100E3000220F4A95EAF72095C695C695C370822B76
:100E4000C23071F0C33079F0C13039F00E948E08A1
:100E50000E946C240E94DE0432CF0E948808F8CFE2
:100E60000E949408F5CF0E948508F2CF111539F140
:100E7000C0FFEECF4D2F429546954770440F440F6B
:100E80008D2F8F70042E01C0880F0A94EAF72D2F42
:100E90002071D4FF07C02FE030E001C0220F4A9537
:100EA000EAF72095C695C695C370822BC23069F0CB
:100EB000C33071F0C13031F00E94E008C9CF8230F8
:100EC00038F2D8CF0E94DA08C3CF0E94E608C0CF1C
:100ED0000E94A008BDCFCF70111539F08C2F0E9451
:100EE000B2088D2F0E94E405B3CF8D2F0E94EB0531
:100EF0008C2F0E94BE08ACCFD23F41F170F4D03F9E
:100F0000C9F0D13F91F0111509F446C0011509F45B
:100F100040C08D2F0E9446059BCFD33FF1F0D43FB8
:100F200091F780910A0382FD22C08C2F8F711115D9
:100F300001F310C0111541F0053008F089CF8C2F56
:100F40008F710E94CE0884CF0630F7CF8C2F8F711F
:100F50001111CFCF0E94B2087BCF111529F08C2F31
:100F60008F710E94A90874CF0E94A50871CF111536
:100F700031F063E08C2F8F710E94680D69CF81E0A2
:100F80000E94870D023008F463CF82E00E94870D33
:100F90005FCF8C2F8F71DECF011579F0D93349F4F3
:100FA000EFEFF7EE23E0E150F0402040E1F700C022
:100FB00000008D2F0E948E054BCF8C2F8F7199CF03
:100FC0000F931F93CF93DF93EC01688179818D811B
:100FD0000E949D098C010E94EC080E948408B801BF
:100FE000CE010E94F205DF91CF911F910F910895DC
:100FF000CF93DF93EC018C81811599F0CE010E9493
:101000005204811111C00E94960C811551F08D81FE
:10101000811539F080910A0382FF03C082E00E94AB
:10102000870DDF91CF910895CE010E94E007CE0198
:101030000E942104F6CF80E090E00E94A22480E08C
:1010400090E00E94C8240E94C00C0E94560D0E948D
:10105000A51F0E94881F08950E94CC250E941B088E
:1010600008950E94AF0C0E942C080895282F929595
:101070009F70963099F060F4925F9F70923030F4D8
:10108000203FB1F038F481E0283E38F080E0089548
:101090009A5FF3CF81E0243FC9F7089591E0813F43
:1010A00009F090E081E0283E08F080E0892B089567
:1010B00081E00895FC018481811539F0808191815E
:1010C0000E9490090E943608089580E00895A6E0E5
:1010D000B0E0EDE6F8E00C94E42E2696E2E00C9405
:1010E000002FA7E0B0E0E7E7F8E00C94E42E2796A5
:1010F000E2E00C94002F08950E947B0808950E945E
:101100007C0880930D02089508950E947F08089539
:1011100090910D02892B0E947F08089590910D02F5
:1011200089230E947F08089590910D0289270E94CB
:101130007F0808950E947B0808950E949A080895E8
:101140000E949D0880930C02089580E00E94A008F0
:10115000089591E001C0990F8A95EAF7892F0E94BE
:10116000A008089521E030E001C0220F8A95EAF737
:1011700080910C02822B0E94A008089521E030E0AB
:10118000A90102C0440F551F8A95E2F7CA01809554
:1011900090910C0289230E94A008089521E030E07C
:1011A00001C0220F8A95EAF780910C0282270E94E3
:1011B000A008089590910C02892B0E94A008089520
:1011C00090910C0289230E94A008089590910C022E
:1011D00089270E94A008089508959B01677091E0F7
:1011E00001C0990F6A95EAF763E0369527956A95ED
:1011F000E1F7B901660F771F260F371FFA01E20FDB
:10120000F31F40E050E0682F70E08191DF019B0107
:10121000042E02C0369527950A94E2F72170219595
:101220002827292328272E934F5F5F4F43305105EE
:1012300061F708959C01A82FA77083E03695279544
:101240008A95E1F7C901880F991F820F931FFB014F
:10125000E80FF91F40E050E080E0219130E00A2ED5
:1012600002C0369527950A94E2F721703327042EA1
:1012700001C0220F0A94EAF7822B4F5F5F4F433081
:10128000510559F70895282F862F953068F42C3092
:1012900058F4622F70E02CE0929F600D711D1124B4
:1012A00044EF51E00E94ED080895292F953068F42D
:1012B0008C3058F490E064EF71E03CE0239F800DA7
:1012C000911D11240E941A09089580E00895A0E05C
:1012D000B0E0EDE6F9E00C94DF2E7C0100910C0209
:1012E00080910D02082BC3E0D0E010E0C8010C2E65
:1012F00002C0959587950A94E2F780FD09C0219771
:10130000A8F7D12C8D2DCDB7DEB7E7E00C94FB2EDE
:10131000DC2EB7018C2F0E948B10019781F3F2CF46
:10132000CF93DF93D82FC92F0E9467096D2F7C2F91
:101330000E948B10DF91CF9108951F93CF93DF937D
:10134000162FD72F9091F301911541F0862F972FEB
:101350000E949009DF91CF911F910895811581F02E
:10136000862F972F0E946709C82F682F812F9D2FE6
:101370000E944309612F7D2F8C2F0E948B10EACF92
:10138000862F972F0E945509C82FF4CFE1E0F0E097
:10139000DF0102C0AA0FBB1F6A95E2F7BD01DF01A2
:1013A00002C0AA0FBB1F4A95E2F76A2B01C0EE0FDD
:1013B0002A95EAF7962F9823961302C08E2B08954C
:1013C000E0958E230895242F462F682F80910C02DC
:1013D0000E94C6090E94A00808950F931F93CF93FF
:1013E000E0910E02C7E080910F028E1304C0CF91EE
:1013F0001F910F9108950E2F10E0CE9FF001112440
:10140000E05FFD4F2081318142815381648175818C
:1014100086810E947108F8013196E770E4CF20912F
:1014200048023091490240914A0250914B0260912A
:101430004C0270914D0280914E020E9471080895F5
:1014400080914E02803178F480914D02811559F0DF
:10145000E0910E0220910F02309149024091480222
:1014600057E02E1301C008956E2F70E05E9FF001CB
:101470001124DF01A05FBD4F14968C911497811544
:1014800061F111968C911197831327C08C9184136D
:1014900024C015968C91159781111FC012968D91BD
:1014A0009C91A0914A02B0914B028A1B9B0B883CF5
:1014B000910598F480914E028F70806180934E0266
:1014C000EA5EFD4F80818F708061808388E492E0C6
:1014D0000E94F8070E94ED090895FB013196E7701C
:1014E000C0CFE0910E0290910F0227E0E91302C0F5
:1014F00080E00895AE2FB0E02E9FF0011124E05F50
:10150000FD4F3181361306C03081381303C0358159
:10151000341304C0FD013196E770E8CF81E00895EF
:101520008F929F92AF92BF92DF92EF92FF920F93B2
:101530001F93CF93DF93CDB7DEB72D970FB6F894F7
:10154000DEBF0FBECDBF8C0186E0F801DE0118962C
:1015500001900D928A95E1F7F801F580848198E475
:10156000892E92E0992E90914C0291111BC0811509
:1015700009F4FFC0F11409F440C1C8010E945A08DF
:10158000811509F43AC187E0F801D40101900D9268
:101590008A95E1F7C4010E9433050E94200A0E9447
:1015A0000F0AE7C0E080A280B380D0904D02209166
:1015B0004A0230914B02A501421B530BD11409F48E
:1015C000DBC0483C510508F0A6C0811509F4D1C024
:1015D00090914902918080914E02803108F06BC059
:1015E000991228C0909148029E1124C0F1105DC04C
:1015F0008F70806180934E020E940F0A88E492E00F
:101600000E94F80780914E02F8018683F12C8F2DFD
:101610002D960FB6F894DEBF0FBECDBFDF91CF91F0
:101620001F910F91FF90EF90DF90BF90AF909F9030
:101630008F900895F11039C040E0692D8E2D0E94E1
:10164000710A40E0692D8E2D0E94710AF82E8111D9
:10165000DDCF888599850E949009292F22952F70CA
:10166000903450F49F70223080F0911599F0F80179
:101670009681903178F4CBCF2A5F2F70223078F0AA
:10168000C8010E94F807FD2CC2CF911519F08115F1
:1016900009F4BDCF805E883008F4B9CFF1CF803F28
:1016A00008F4B5CF815F8330F7CF80914E0281601F
:1016B00080934E02ABCF991207C0909148029E11C1
:1016C00003C0F11409F479C0C8010E945A088115B9
:1016D00009F493C0F11409F490C080914E02803255
:1016E00088F020914802309149023A832983BC82D4
:1016F000AB8290914C029D831E828F83CE01019616
:101700000E94F80787E0F801A8E4B2E001900D928A
:101710008A95E1F742CF90914E029031A0F448852E
:1017200059856A857B858C859D850E94670888E43C
:1017300092E00E94F80787E0F40111928A95E9F798
:101740000E940F0A63CF8115A1F020914902818187
:101750002813BACF809148028E11B6CFF110B4CFC2
:101760009683C8010E94F80787E0F40111928A95D8
:10177000E9F7FF24F3944BCF483C510508F041C0F2
:101780008115B9F3F114C9F190914902818198133F
:101790002AC0809148028E1126C080914E0280FDA1
:1017A00019C08031B8F08683807F803F39F0868110
:1017B000982F907F905F8F70892B8683C8010E943D
:1017C000F80787E0F801A8E4B2E001900D928A954D
:1017D000E1F7E5CE87E0F801A8E4B2E001900D92D0
:1017E0008A95E1F7C6CFC8010E945A0881118ACFB5
:1017F00080914E02816080934E02C8010E94F807DA
:10180000B8CF488559856A857B858C859D850E94E2
:10181000670891CFAEE0B0E0E0E1FCE00C94E32E8D
:10182000288739874A875B876C877D878E87CE01BB
:1018300008960E94900A6C858115A9F0611541F007
:10184000288539854A855B857D858E850E9471084E
:1018500017E080910E0290910F0289133AC02E96E4
:10186000E3E00C94FF2E87E0FE013896DE0111962E
:1018700001900D928A95E1F7611551F3A0910F0245
:101880008A2F90E001968770992720910E022817E1
:10189000190689F097E09A9FD0011124A05FBD4FEF
:1018A000FE01319601900D929A95E1F780930F0217
:1018B0000E94ED09CDCF0E94310810920F021092C4
:1018C0000E0287E0E8E4F2E0DF011D928A95E9F775
:1018D000BFCF189FC0011124805F9D4F0E94900AC6
:1018E000811509F4BCCFE0910E021E9FF001112476
:1018F000E05FFD4F20813181428153816481758198
:1019000086810E94710880910E0290E00196877096
:10191000992780930E029DCF8091770286958695B8
:101920008695089580917702877008959091770247
:10193000977081E0911101C080E008958091A30229
:1019400008959091A302982B9093A3020895982F45
:1019500090958091A30289238093A3020895109209
:10196000A30208959091A202982B9093A202089549
:10197000982F90958091A20289238093A2020895C6
:101980001092A202089508950E94C30C08959091A8
:101990007802292F2823211531F0809589238093FF
:1019A00078020E94C40C089508950E94D40C0895F2
:1019B00090917902292F2823281729F0982B9093AA
:1019C00079020E94D50C089590917902292F28233D
:1019D000211531F080958923809379020E94D50CDE
:1019E000089580917902811529F01092790280E0A2
:1019F0000E94D50C0895CF93C091A3028091A202BA
:101A0000C82B80917902811531F0C82B0E94EE24F9
:101A100081110E94F10C8C2FCF910895CF93DF9309
:101A2000C0910601D09107010E94FB0C8883C091F0
:101A30000601D091070148E050E06FE672E0CE0168
:101A40000E94AA2F892B59F088E0FE01AFE6B2E090
:101A500001900D928A95E1F7CE010E947924DF91E1
:101A6000CF910895CF93DF93C0910401D0910501E8
:101A70000E94FB0C8983C0910401D091050140E2D2
:101A800050E06FE472E0CE010E94AA2F892B59F03A
:101A900080E2FE01AFE4B2E001900D928A95E1F799
:101AA000CE010E948424DF91CF910895809130016E
:101AB000811539F08091090387FF03C00E94320D20
:101AC00008950E940E0D089508950E94640D0895D2
:101AD000962F20910A0322FF11C0682F660F660F10
:101AE000660F692B609377020E94B208809177029B
:101AF0008695869586950E94650D08950E94B20888
:101B000008951092770280E00E94650D08959091EB
:101B100077028095892380937702282F27702111DF
:101B20000DC0891759F090910A0392FF07C086955E
:101B3000869586950E94BE080E94810D0895909119
:101B40000A0392FB222720F9281769F080FB92F9FB
:101B500090930A038091090390910A030E94E70D74
:101B600082E00E94870D089580910A03002482FF7D
:101B70000394802D0E949F0D089581E00E949F0D87
:101B8000089580E00E949F0D08956FEF7FEF80E041
:101B900090E00E940230089580E090E00E94CE2FF5
:101BA000853E9E4F19F40E949922089580E0089581
:101BB00082E090E00E94C02F089583E090E00E94B0
:101BC000C02F089584E090E00E94CE2F0895BC01BC
:101BD00084E090E00E9402300895AB01BC018FE0E8
:101BE00090E00E94F62F0895AB01BC0183E190E0E4
:101BF0000E94F62F089560E070E0CB010E94F40D82
:101C0000089560E070E0CB010E94ED0D0E94FB0D95
:101C10000895A8E0B0E0EFE0FEE00C94E42E65EE5D
:101C20007EEF80E090E00E94023060E082E090E091
:101C30000E94E42F81E080930D0261E083E090E058
:101C40000E94E42F60E074E184E090E00E940230A2
:101C500060E086E090E00E94E42F60E087E090E0A2
:101C60000E94E42F40E050E0BA0188E090E00E943A
:101C7000F62F60E083E290E00E94E42F60E08CE0C9
:101C800090E00E94E42F60E08DE090E00E94E42F5D
:101C900019821A821B821C821D821E821F82188654
:101CA00048E050E067E170E0CE0101960E94D42F39
:101CB00040E050E0BA018FE190E00E94F62F80E012
:101CC0000E94B2220E94E4220E94010E2896E2E0C5
:101CD0000C94002F0E94090E0895682F8EE090E06A
:101CE0000E94E42F0895A6E0B0E0E9E7FEE00C943E
:101CF000E22E0E94B5268C018091A4029091A5024B
:101D00008017910779F019821A820E94B526BC01CA
:101D100049815A8180E090E00E9403051093A5025A
:101D20000093A4022696E4E00C94FE2E0E94C126A5
:101D30006093B4027093B5028093B6029093B70299
:101D40006093B0027093B1028093B2029093B30299
:101D50000895089508950E94A90E08950E94A80369
:101D6000089580E891E10E94F5120E94AA0E0E9457
:101D7000AB0E089581E0089581E008950E94BA0EA7
:101D80000895089508950E94C10E0E94C20E0895FC
:101D90000E94CC0D811102C00E946A0E0E94D80DD3
:101DA0008093B8020E94E20D90930A038093090386
:101DB0000E94A81B0E94DD0D0E94850880910C02E4
:101DC0000E949D0808950E94AC260E94F4220E9461
:101DD00046120E94C80E0E94DD040E94CB190E9488
:101DE000AE0E0895A6E0B0E0E8EFFEE00C94D82E29
:101DF0000E94BC0E81110CC00E94730E0E94CA1A70
:101E00000E94C61F0E94EA042696EEE00C94F42E6F
:101E10000E945C1226EA822E22E0922E540110E0EB
:101E2000F501619071905F01812F0E948A116C0110
:101E30001F5F153009F44AC06816790689F380914E
:101E4000B80281FD0E9493110E94BE0E782E10E010
:101E500066246394812F0E948A117C01F401A19071
:101E6000B1904F018A159B0559F1A826BF2400E0C7
:101E7000CC24C394D12CC5018C219D21892BC1F088
:101E80007114B1F009831A830E94B5269C838B8359
:101E90006D8221E0C7018C219D21892B09F420E06E
:101EA00049815A816B817C818D81922F0E9403052B
:101EB0000F5FCC0CDD1C0C30F1F6F401F292E292D3
:101EC0001F5F153039F60E94960E98CF6816790676
:101ED00009F0B5CF91CF1F93CF93DF930E9490105D
:101EE000EC01811522E5920708F05DC0811540E5FF
:101EF000940708F0DBC0803E910528F58D3C9105E4
:101F000008F0ACC0883A910578F4853A910508F05C
:101F1000A2C08130910509F441C00497813A91052E
:101F2000E8F1C0E0D0E03AC0885A91094B97C8F771
:101F3000C85AD0E0CC0FDD1FC959DE4F0990D881B7
:101F4000C02DD4642BC0811550E49507F8F4C11559
:101F500080E2D80708F0C0C0C83ED105F8F0CE0135
:101F60009A9581159F41E8F68D2F0E943111182F07
:101F7000CE0199270E949010212F30E0322F222786
:101F8000E901CC27DF71C82BD92B08C099270E9403
:101F90009010CC27DF70C82BD92BD06ACE01DF91EF
:101FA000CF911F910895803842E59407C8F5803697
:101FB00052E5950708F05BC0C03482E5D807D0F43D
:101FC000C03292E5D90708F04BC08C2F86958695D4
:101FD00020E2829FC0011124C37021E030E0A901FA
:101FE00002C0440F551FCA95E2F7EA01C82BD92B4E
:101FF000DD68D4CF8C2F86958695877050E2859FBB
:10200000C0011124C37021E030E0A90102C0440FD7
:10201000551FCA95E2F7EA01C82BD92BDC68BECF61
:10202000803C52E5950758F48F71C03AD245A0F52F
:1020300090E0982F8827EC01C46FD06AAFCF805C06
:102040009245809708F06DCFDC2FCC27CC27DF712D
:10205000C06FD06AA3CFA497D064A0CFD0659ECF25
:10206000CF71D0E0DC2FCC27C16FD06A97CF869597
:102070008695877020E2829FC0011124C37021E001
:1020800030E0A90102C0440F551FCA95E2F7EA01EA
:10209000C82BD92BDA6882CF0E943111C82FD0E02B
:1020A000DC2FCC27CC27DF71D06278CF8F710E94D4
:1020B000311153E0CC0FDD1F5A95E1F7CC27DF70CB
:1020C000282F30E084FF04C050E1859F9001112447
:1020D000C22BD32BD06962CF8D2F8F710E9431110B
:1020E000182FCE0199270E949010212F30E0322F17
:1020F000222722273F71282B392BE901D5CF462FE4
:10210000672F753028F44C3018F40E945C1C089539
:1021100080E090E008950E947F100E946B0F089568
:102120009C01803E910509F448C0D8F481339105A3
:1021300009F47DC048F48932910509F46DC08A978D
:1021400009F47CC0C90108958933910551F18238A1
:10215000910539F1C597B1F78091090385FFF2CF59
:1021600029C0843E910509F447C048F4823E910598
:1021700099F1833E9105A9F121EE30E0E3CF863E4F
:10218000910509F444C0873E9105E1F68091090369
:1021900083FD61C090910A0391FF2BC024EE30E0D3
:1021A000D1CF809109038370811152C080910A03BD
:1021B00083FFC8CF29E230E0C5CF8091090380FDBD
:1021C00033C090910A0390FFBDCF23EE30E084FF2F
:1021D000B9CF20E030E0B6CF8091090382FDF5CF82
:1021E000B1CF8091090382FD30C090910A0390FD28
:1021F0002FC084FFA7CFEDCF80910A0381FFA2CF2C
:102200008091090327EE30E084FDE3CF9BCF8091DE
:10221000090383FDF7CF96CF8091090385FD1EC08A
:1022200080910A0383FF8ECF29E330E08BCF80912A
:10223000090386FF87CF2AE230E084CF809109032B
:1022400086FF80CF21E330E07DCF22EE30E07ACFF1
:1022500020EE30E077CF26EE30E074CF25E330E09B
:1022600071CF9091090392FF10C041E0282F247193
:10227000243009F040E031E0282F2871283009F09F
:1022800030E0431711F02CE0822793FF10C041E0AB
:10229000282F2471243109F040E031E0282F2871E3
:1022A000283109F030E0431711F02CE082273091FB
:1022B0000A0330FF10C051E0282F2171213009F0AE
:1022C00050E041E0282F2871283009F040E05417F1
:1022D00011F029E0822731FF10C041E0282F217141
:1022E000213109F040E031E0282F2871283109F030
:1022F00030E0431711F029E0822794FD877E08958E
:1023000080E0089508950E948211089508950E9422
:1023100086110895E82FF0E0EE0FFF1FEB5EFC4FF3
:10232000808191810895089580EA8A95F1F7089552
:1023300000C008950E9494110895F894E82FE29542
:10234000EF70F0E041A18F7021E030E0B90102C0F0
:10235000660F771F8A95E2F7CB01962F909594230D
:1023600091A392A1892B82A378940895CF93DF93B0
:10237000C9EAD1E089918F3F11F00E949D1181E05F
:10238000CE3AD807B9F7CDE9D1E089918F3F11F066
:102390000E949D1181E0C93AD807B9F7DF91CF912A
:1023A00008958F929F92BF92CF92DF92EF92FF9209
:1023B0000F931F93CF93DF938C01B62EE62EF12C53
:1023C000C70187559E4F6C01FC0180818F3F09F446
:1023D00051C0F894E82FE295EF70F0E091A18F7072
:1023E00021E030E001C0220F8A95EAF7892F822B85
:1023F00081A382A12095282322A378940E9498117A
:10240000EDE9F1E021E030E0812C912C41914F3F4A
:1024100081F0A42FA295AF70A05EB0E08C9190E007
:102420004F7002C0959587954A95E2F7E90180FFC4
:1024300004C080E0C82F90E0D92F8C2A9D2A220F5B
:10244000331F81E0E93AF80709F7F60180818F3FF1
:1024500011F00E949D1161E08114910409F460E083
:102460008B2D0E949A11EE0CFF1C0E0D1F1DF80102
:1024700091828082DF91CF911F910F91FF90EF9019
:10248000DF90CF90BF909F908F9008950E94B611DB
:102490008AE0E5E1F3E0DF01982F1D929A95E9F7D4
:1024A000EBE0F3E0DF011D928A95E9F785E00E94F9
:1024B00099120E9483110895AAE0B0E0E2E6F2E1E9
:1024C0000C94E12EFE0131968AE0DF011D928A957F
:1024D000E9F710E0FE2E0F2F612F8F2D902F0E9415
:1024E000D1111F5F1530C1F74AE050E06F2D702FFA
:1024F0008BE093E00E94AA2F21E0892B81F420E059
:1025000045E065E173E08BE093E00E949A12182F9A
:102510000E948711812F2A96E5E00C94FD2E8AE017
:10252000EF2DF02FABE0B3E001900D928A95E1F72B
:10253000E7CF0895A0E0B0E0E0EAF2E10C94DE2EEF
:10254000D82EE92EF62ED72F042FC22F211579F081
:1025500081E08093BB020E94B5269093BA028093DB
:10256000B90280E0CDB7DEB7E8E00C94FA2EC09057
:10257000BB02C114B1F38091B9029091BA020E94DA
:10258000CD26059770F310E0000F111FA8016D2DE7
:102590007E2D8F2D9D2F0E94AA2F892B41F0A801FF
:1025A0006D2D7E2D8F2D9D2F0E94B72FCC2D10923B
:1025B000BB028C2FD7CF0E94F20E08950E944E26A8
:1025C0000E94A8280E94B10E0E94C2280E94E30E19
:1025D0000E94CF280E94D4280E94DB120E94EE287D
:1025E0000E9478270E94C30EF5CF9093ED0180934F
:1025F000EC010895A0E0B0E0E0E0F3E10C94DE2E01
:10260000372FE82F71110FC0411521F0F0E0E4558C
:10261000FC4FE4919E2F7E2F692F8E2FCDB7DEB712
:10262000E8E00C94FA2EC62ED12CE72EF12C4115A1
:1026300021F0F0E0E455FC4FE49146E0649FE001B6
:1026400011240FEF10E0CE01B8010E94542EA60114
:10265000440F551F25E5269FC001279F900D11248B
:10266000481B590B842F880F840FD801AE19BF095E
:10267000EA9FA001EB9F500D1124252F389F700178
:102680001124EF2CFF24D801AE19BF097D01EE9D66
:10269000D001EF9DB00D11247801E81AF108C701AF
:1026A000389F7001399FF00C1124EF2CFF240E1974
:1026B0001F09E09F7001E19FF00C11249F2D6330F2
:1026C0007105C1F0CC3FD34060F461307105B1F0C9
:1026D0006230710519F49E2FE52F2F2D7E2FE22FEA
:1026E0009BCF6430710569F066307105B9F3952FA1
:1026F0002B2FF4CF2E2FE52F9B2FF0CF9E2FEB2FDC
:10270000EDCF952F2E2FEF2DE9CF41E00E94FA1249
:10271000089508950E9485130895CF93DF93982F0D
:10272000762F842FE901692F0E948A1379836883A9
:102730008A83DF91CF91089580911F03843028F41C
:102740008370846080931F0308958C3AE8F383704C
:10275000886AF8CF4F925F926F927F928F929F928A
:10276000AF92BF92CF92DF92EF92FF920F9388E0E9
:1027700090E00E94C82F6B017C0183E290E00E94F0
:10278000C02F282F30E040E050E060E070E080E0B3
:1027900090E000E20E940B2F260137012C293529F9
:1027A000462957290F91FF90EF90DF90CF90BF906F
:1027B000AF909F908F907F906F905F904F90089513
:1027C000A0E0B0E0E6EEF3E10C94DE2E8901D42F18
:1027D000C52F6B017C010E949C13A8016D2F7C2FDB
:1027E00088E090E00E94F62F98014D2F5C2FB601F3
:1027F000C70100E20E94262F622F83E290E00E9430
:10280000E42FCDB7DEB7E8E00C94FA2EEFE1F3E069
:1028100020813181428153816481758186819781D4
:102820000E94E0130895EFE1F3E085E080831182D8
:102830008FEF828383831482758125E030E04FEF30
:102840005FEF60E0868197810E94E0130895809198
:102850001F0380FF03C086958695089580E0089544
:1028600080911F038170089590912303933018F491
:102870009F5F90932303811591F020911F03309166
:102880002003409121035091220360912303709112
:10289000240380912503909126030E94E01308955C
:1028A00081E00E943414089590912303911519F04A
:1028B000915090932303811591F020911F03309143
:1028C00020034091210350912203609123037091D2
:1028D000240380912503909126030E94E01308951C
:1028E00081E00E94541408958091230308958093F9
:1028F0002303611589F020911F033091200340913B
:1029000021035091220370912403682F80912503A5
:10291000909126030E94E013089560E00E947714CE
:102920000895809120030895809121030895809156
:1029300022030895CF92DF92EF920F931F93CF93CC
:10294000DF93CDB7DEB762970FB6F894DEBF0FBE48
:10295000CDBF60910C0180911F0380FF3BC0E6EA70
:10296000F3E09E012F5F3F4FCE01439689014491D2
:1029700050E0DA01AA0FBB1FA40FB51FA95DBC4F21
:10298000CD90DD90EC90D901CD92DD92ED929D013C
:102990003196A817B90759F770E020910B0130E084
:1029A000C901880F991F820F931FE091DB01F091FD
:1029B000DC01800F911F099562960FB6F894DEBF77
:1029C0000FBECDBFDF91CF911F910F91EF90DF90A0
:1029D000CF90089580910D0190910E01282F30E045
:1029E000F901EE0FFF1FE20FF31FE95DFC4F89179E
:1029F00008F0B5CF1182108212828F5F3396F7CF25
:102A000090911F0390FF11C090910D0150910E0104
:102A1000292F30E0F901EE0FFF1FE20FF31FE95DF0
:102A2000FC4F951718F00E949A14089581836083D3
:102A300042839F5F3396F5CFA3E0B0E0E2E2F5E199
:102A40000C94E42E90911F0390FF0AC09E012F5F0B
:102A50003F4F0E948D134B8169818A810E9400152E
:102A60002396E2E00C94002FCF93DF93EC01EC81EE
:102A7000F0E0EF55FD4F4491EFE1F3E06281818199
:102A80000E941C158C818F5F8C83DF91CF910895FC
:102A9000CF93DF93EC01EFE1F3E0438162818C811E
:102AA0000E941C158C818F5F8C83DF91CF910895DC
:102AB000A3E0B0E0EEE5F5E10C94E22E8C0180910C
:102AC000BC0281110AC09E012F5F3F4F4FEF6FEF95
:102AD0000E948D138A818093BC02F8016481613069
:102AE00049F06230D1F08091BC0240E0611531F0D4
:102AF00040E015C06091BC0240E080E00E940015FB
:102B0000F801848190E0019663E070E00E94682EF5
:102B100084832396E4E00C94FE2E4091BC0280E076
:102B200060E0ECCFA3E0B0E0E8E9F5E10C94DD2E45
:102B3000082FE62EF42EC22E90911F0390FF2EC078
:102B4000E92FE695E695AE2FB0E0A255BE4F8C91E9
:102B50008093E4029C7F943029F59E012F5F3F4FC4
:102B6000802F0E948D134B8169818A810E940015FC
:102B700000932003E0922103F0922203C11471F02C
:102B800020911F036091230370912403302FA7012C
:102B900080912503909126030E94E0132396E9E09B
:102BA0000C94F92E823019F4F0902203E1CF863094
:102BB00019F400912003DCCF8930D9F38931C1F6B3
:102BC000E9518E2F8170B82EE695F0E0EF55FC4F5D
:102BD0001491D12C60910F01D61618F00E949A140E
:102BE000C7CFD19EC001112470E00E94542E802FC7
:102BF000B11013C0860F40910D014D0D5527551F83
:102C00009A01220F331F240F351F295D3C4F4F2D92
:102C10006E2D0E948D13D394DDCF861BECCF282F11
:102C2000EFE1F3E0818143816281865F0E9492152A
:102C3000089581E00E940F160895282FEFE1F3E038
:102C40008181438162818A500E949215089581E0BA
:102C50000E941D160895282FEFE1F3E0628131E113
:102C6000630F08F46FEF438181810E9492150895EC
:102C700081E00E942B160895282FEFE1F3E0628196
:102C800031E1631B08F460E0438181810E94921569
:102C9000089581E00E943C160895282FEFE1F3E0AB
:102CA000438131E1430F08F44FEF628181810E943B
:102CB0009215089581E00E944D160895282FEFE1A6
:102CC000F3E0438131E1431B08F440E062818181FC
:102CD0000E949215089581E00E945E16089520E0FA
:102CE0000E9492150895EF92FF921F93CF93DF9366
:102CF000EC0110E0EE24EA94F12C60910F0116171C
:102D000070F00E949A148C819A8190FF25C08F5F89
:102D10008C83DF91CF911F91FF90EF900895809168
:102D20000D01810F9927991F9C01220F331F280F36
:102D3000391F295D3C4F70E0C7010E94682E962F15
:102D40008C814091220360912103199F800D1124F1
:102D50000E948D131F5FD1CF8150DACFA0E0B0E089
:102D6000E4EBF6E10C94DD2EFC018281CC24C394CB
:102D700080FF02C0CC24CA94D12C80910F01D816B8
:102D800098F00E949A148091BE02F1E0CF124BC0DD
:102D9000811102C080910F0181508093BE02CDB796
:102DA000DEB7E9E00C94F92E80910D01ED2CF12CA9
:102DB0008E0D9F2D911DEC01CC0FDD1FC80FD91F6B
:102DC000C95DDC4F198218821A8204E010E0B12C30
:102DD0008091BE028B0D873004F166E00E94462E82
:102DE000892F082E001C00088E150F0481F44091D5
:102DF00022030403A0011124559547955595479545
:102E00009E0160912103809120030E948D13BC0CD0
:102E100001501040E9F6D394B0CF87FFE2CF9091F4
:102E20000F01890FDECF90E0019660910F0170E0F5
:102E30000E94682EB2CFCF9380910D0190910E0128
:102E4000282F30E0F901EE0FFF1FE20FF31FE95DBD
:102E5000FC4F891720F1C0E060910F01C61728F1DF
:102E60000E949A14809109019091BD02980F90934D
:102E7000BD0220910A01280F20930A01121654F472
:102E800020910F012150330B092E001C00089217CE
:102E900003061CF0819580930901CF91089511825A
:102EA000108212828F5F3396D4CF2C2F30E070E0E7
:102EB000C9010E94682E90910D01980F892F90E012
:102EC0004091BD02FC01EE0FFF1FE80FF91F042E19
:102ED000001C000824173005ACF040910A01042EB4
:102EE000001C0008421703066CF09F01295D3C4F4F
:102EF0004091220360912103809120030E948D1351
:102F0000CF5FAACFE95DFC4F118210821282F8CF09
:102F1000A6E0B0E0EEE8F7E10C94DE2E8D839E8310
:102F2000AD81BE811496FC912F2F30E0D9010E9413
:102F3000B32E9B01AC010E94C92E6B017C0180E283
:102F400090E09C012F1B3109F901A5E5B0E0A70134
:102F500096010E94C92E69837A838B839C839F018B
:102F6000DF010E94AB2E9B010E94C22E9B01AC018F
:102F70002C0D3D1D4E1D5F1D69817A818B819C81C9
:102F80000E947C2E022F30E00A3248F5A901440F3E
:102F9000551F420F531F55954795142F1095F12C2F
:102FA00085E5E82EE01A80910F01F81630F10E94B5
:102FB0009A14AD81BE8114969C9181E0911519F00F
:102FC000903219F48FEF8093080180910801890FE6
:102FD000ED81FE8184832696E8E00C94FA2E85E547
:102FE00090E0821B930BAC01440F551F480F591FF3
:102FF00057FFD1CF4F5F5F4FCECF8E2DF1FC802F8B
:1030000040910D014F0D5527551F9A01220F331F77
:10301000240F351F295D3C4F412F609121030E94F1
:103020008D13F394C0CF0F931F93CF93DF93EC01D5
:1030300000E010E090910F01091711056CF00E945B
:103040009A148C8190E00196817099278C83DF918E
:10305000CF911F910F91089580910D01A801480F04
:10306000511D9A01220F331F240F351F295D3C4F3C
:103070004C816091210380912003969509171105D9
:103080004CF4411549F0409122030E948D130F5FCB
:103090001F4FD0CF4115B9F340E0F7CFA0E0B0E02B
:1030A000E4E5F8E10C94D62EFC016280448081E0D6
:1030B0008483E1EAF2E07490E0E2F3E0E491C0910D
:1030C0002203C695C158D0E0CC0FDD1FCD2FDD27E0
:1030D000812C75E0972EAA24AA94B12C55245A94D9
:1030E000E719EE2EF12C80910F01881638F00E941E
:1030F0009A14CDB7DEB7E0E10C94F22EC82CD12C97
:1031000083E0681658F4989CF0011124E154FD4FB7
:10311000809120038083809121038183411023C00B
:103120009C9CF0019D9CF00D1124E154FD4F1382F5
:10313000128280910D018C0D9D2D911D9C01220FFD
:10314000331F280F391F295D3C4F9C9CF0019D9C2B
:10315000F00D1124E154FD4F4281618180810E9474
:103160008D138394C0CF9C9C80019D9C100D1124D5
:1031700001541D4FF80183818115F1F08150838343
:10318000589EC0011124648170E00E94542EFB01FE
:10319000FF27EF55FD4F8491E82FE7195E9EC00190
:1031A0001124B7010E94542E80912203689FB00120
:1031B0001124F8017283BDCF0E948D2FB5010E94AA
:1031C000682E8C179D070CF0B4CFF3E06F1698F0C3
:1031D0000E948D2FB5010E94682EF80180830E9405
:1031E0008D2F209121032695622F70E00E94682E7A
:1031F000280FF80121839C9CF0019D9CF00D112467
:10320000E154FD4F128280912203893C58F088ECF2
:103210009C9CF0019D9CF00D1124E154FD4F848392
:10322000838387CF8431A0F784E1F2CFEFE1F3E02D
:1032300020812E7F20833181428153816481758179
:10324000868197810E94E0131092E5020E949A14F1
:103250000895EFE1F3E080818E7F80831092E50294
:103260000E949A14089560911F036695669570E018
:103270004BE050E080E191E00E949D2F892B19F4F2
:1032800081E08093E5020E94B5269093DE02809350
:10329000DD02089590911F0390FF3AC08115C9F196
:1032A0008B32C8F58F73282F220F220F80911F03B6
:1032B0008370282B20931F03611581F03091200328
:1032C00040912103509122036091230370912403C4
:1032D00080912503909126030E94E01360911F03C3
:1032E0006695669570E04BE050E080E191E00E94C9
:1032F0009D2F892B91F01092E50281E08093E002EE
:103300004091220360912103809120030E946F1657
:10331000089581E0C8CF8AE2C6CF0E943319EDCF6D
:10332000682F80911F03869586958F5F8B3208F0FA
:1033300081E00E944A19089581E00E949019089541
:10334000682F80911F03869586958A9509F48AE2F5
:103350000E944A19089581E00E94A019089561E031
:103360000E944A190895EFE1F3E080818160808333
:10337000869586950E94AF19089580911F0380FF5E
:1033800003C00E94161908950E94B319089560E0C1
:103390000E944A1908958091E30281113CC00E9465
:1033A000AA1320931F0330932003409321035093CB
:1033B0002203609323037093240380932503909347
:1033C00026032430A0F40E9413140E94AA13209311
:1033D0001F033093200340932103509322036093F3
:1033E00023037093240380932503909326030E9464
:1033F0009C131092E502E091D901F091DA01099550
:1034000080911F0380FF04C0869586950E94C7198E
:1034100081E08093E3020895EFE1F3E08081816031
:103420008083869586950E94C719089580911F0311
:1034300080FF03C00E94291908950E940C1A089564
:103440000F931F93CF93DF938091E502811509F4C9
:1034500041C08091E402E0911F03E695E695E81BE8
:10346000E093DF02853109F48BC008F044C0893055
:1034700009F47CC0A0F5823009F466C0863009F4F6
:103480006CC0C0EDD7E009E813E18091E00281153E
:1034900061F01092E0020E94B5269093DE028093C4
:1034A000DD021092E2021092E1020E94B526209104
:1034B000DD023091DE02821B930B8F3F9F4750F459
:1034C0002C0F3D1F3093DE022093DD028DED92E044
:1034D000F8010995DF91CF911F910F9108958F30D9
:1034E00081F6E695F0E0EC56FD4FE491CE2FD0E06A
:1034F0000EEA16E1CACFC4EFD1E003E118E184324D
:1035000021F288F4C8E2D0E008E817E1883109F434
:10351000BCCF833209F0B5CFEFE8F2E0C591D4918A
:1035200008E515E1B2CF853209F0ABCF8E2F63E00D
:103530000E943A2EE92FF0E0E457FD4FE491CE2FA0
:10354000D0E00EE418E1A1CFF0E0E356FD4FE491A6
:10355000CE2FD0E004E315E198CFF0E0E656FD4F22
:10356000E491CE2FD0E008E415E18FCFE695F0E0AE
:10357000E956FD4FE491CE2FD0E003E716E185CF69
:10358000F0E0EF56FD4FE491CE2FD0E00BE117E1D4
:103590007CCF08950E94201A0895FA01811511F038
:1035A00009950895FB01FCCFCF93DF93C82FD62F49
:1035B0000E9427148C1748F00E9427148D1728F4B6
:1035C0000E949C19DF91CF9108958C2F0E94AF1912
:1035D000F9CF1F93CF93DF93EC01FB0115811111FC
:1035E00068C00E949E0C8272FE01E052F847E531ED
:1035F000F10508F05EC0E35BFF4C0C949E2E0E9428
:10360000BD19812FDF91CF911F9108954BEA59E1A8
:103610006CE979E10E94CD1AF4CF4CE959E16BEAEB
:1036200079E1F8CF47E256E169E176E1F3CF49E18C
:1036300056E167E276E1EECF49E456E168E376E1F0
:10364000E9CF48E356E169E476E1E4CF4BE656E1A1
:103650006AE576E1DFCF4AE556E16BE676E1DACF5F
:1036600040E754E160E574E1D5CF40E554E160E71F
:1036700074E1D0CF81E00E94AF19C3CF65E082E052
:103680000E94D41ABECF68E086E0FACF6EE089E0EF
:10369000F7CF64E18FE0F4CF67E185E1F1CF88E116
:1036A000EACF62E289E1ECCF83E2E5CF6AE285E22C
:1036B000E7CF11E0A6CF539A08959C01FB014BB1CF
:1036C000477F5BB158606FB7F894CF01880F991F9F
:1036D0008E0F9F1F820F931F2817390741F46FBF6A
:1036E0008FE594E00197F1F700C000000895F9011B
:1036F00071919F01E8E05BB9000000C077FF4BB912
:10370000770F000000C000C000C04BB900C0EA95B0
:1037100091F7E2CF0E94C50D089580E00E948A11C2
:10372000817008950E945C122FEF86E791E021508E
:1037300080409040E1F700C000000E945C120E94AF
:103740008D1B811521F00E948A1B0E94002708957D
:103750000E94921B089584E0089550E0440F551F85
:1037600098E1699F400D511D112498E7899F400DF4
:10377000511D1124CA01889608950F931F93CF936A
:10378000DF938430C8F46530B8F44C30A8F40E945C
:10379000AD1B8C010E94C02FC82FD0E0DC2FCC279E
:1037A000C80101960E94C02F9E01282BC901DF91FC
:1037B000CF911F910F91089580E090E0F8CF0F9383
:1037C0001F93CF93DF93122F032F843078F465304B
:1037D00068F44C3058F40E94AD1BEC01602F0E943D
:1037E000E42F612FCE0101960E94E42FDF91CF914B
:1037F0001F910F9108951F93CF93DF93D0E0C0E006
:1038000011C0412F6C2F8D2F0E94AE039C01412FC0
:103810006C2F8D2F0E94DF1B1F5F1C3091F7CF5F35
:10382000C53011F010E0EDCFDF5FD43041F7DF910C
:10383000CF911F910895EF92FF920F931F93CF9313
:10384000DF938C01EA017A01E60EF71ECE15DF0543
:1038500029F4CDB7DEB7E6E00C94FC2E003E81E003
:10386000180740F4C80188960E94C02F89930F5F03
:103870001F4FECCF80E0FACFEF92FF920F931F9390
:10388000CF93DF938C01EA017A01E60EF71ECE1585
:10389000DF0529F4CDB7DEB7E6E00C94FC2E003E40
:1038A00081E0180728F46881C80188960E94E42FF7
:1038B00021960F5F1F4FEBCF843038F4653028F42A
:1038C0004C3018F40E94BD1B089580E090E00895EC
:1038D00080E1089588EF91E00895EF92FF920F93B1
:1038E0001F93CF93DF938C01EA017A01E60EF71E56
:1038F000CE15DF0529F4CDB7DEB7E6E00C94FC2E3B
:10390000083F81E0180748F4C801885F9D4F0E9476
:10391000C02F89930F5F1F4FEBCF80E0FACFEF925C
:10392000FF920F931F93CF93DF938C01EA017A01EB
:10393000E60EF71ECE15DF0529F4CDB7DEB7E6E0BB
:103940000C94FC2E083F81E0180730F46881C80110
:10395000885F9D4F0E94E42F21960F5F1F4FEACF93
:10396000CF93DF93C8E0D2E060E0CE010E94E42F65
:103970002196C11584E0D807B9F7DF91CF9108955A
:10398000A8E0B0E0E6ECFCE10C94DC2EF82E20E19F
:10399000821708F067C08FEF93E00E94C02F81115B
:1039A00061C008E012E0F11033C0FE0131965F0102
:1039B00088E011928A95E9F76801FFEFCF1ADF0AD4
:1039C000C8010E94C02F89831A82811509F44AC058
:1039D0008130C1F4780122E0E20EF11CC6010E94A0
:1039E000C02F8A838115F1F19FEF980F9330E8F48F
:1039F00082E0C80ED11CC7010E94C02F8B838115A5
:103A000089F11C8260E0C5010E944B218601D4CF60
:103A1000011584E0180731F1C8010E94C02F0F5F23
:103A20001F4F8111F5CFFA94BECF8430A1F402E08C
:103A300010E0C701EFEFEE1AFE0A0E94C02FF50159
:103A4000E00FF11F8083811569F08C3731F4FE019E
:103A5000E00FF11F12826701D5CF0F5F1F4F0730B4
:103A6000110539F72896EAE00C94F82ECF93DF93EE
:103A7000EB0186319C4719F50E949E0C9D819115A2
:103A8000A1F08A7A91E0811101C090E09093E60262
:103A9000811549F085E30E949E250E94560D80E025
:103AA000DF91CF91089589E2F6CF8091E6028115EA
:103AB00021F085E30E94B525F0CF89E2FBCF81E0BC
:103AC000EFCFCF93DF93EC01FB018581811509F4E2
:103AD000CFC09E0130572332310508F0AFC00E949D
:103AE000E20D90930A0380930903FE01E150F04731
:103AF000E232F10520F4EE59FF4C0C949E2E809199
:103B0000090381608093090390C080910A03886053
:103B100080930A038AC0809109038260F3CF809169
:103B200009038460EFCF809109038860EBCF809117
:103B30000A038160EDCF80910A038260E9CF809112
:103B400009038061DFCF809109038062DBCF809120
:103B500009038064D7CF0E943108809109038068EF
:103B6000D1CF809109038C60CDCF80910A0383600F
:103B7000CFCF809109038E7FC5CF80910A03877FC5
:103B8000C7CF809109038D7FBDCF809109038B7FC3
:103B9000B9CF80910903877FB5CF80910A038E7FCB
:103BA000B7CF80910A038D7FB3CF809109038F7EB9
:103BB000A9CF809109038F7DA5CF809109038F7BC9
:103BC000A1CF0E943108809109038F779BCF80910C
:103BD0000903837F97CF80910A038C7F99CF8091CF
:103BE0000903992782FF939590FB82F990FB83F953
:103BF00089CF80910A03982F909590FB80F990FBD4
:103C000081F986CF90910903892F8F7B96FF80647D
:103C100079CF0E94310890910903892F97FB87F98A
:103C2000805870CF81E00E946D0E809109039091C1
:103C30000A030E94E70D0E94310880E0DF91CF91D6
:103C4000089580E0F0CF90910903892F8F7E94FF33
:103C5000806158CF90910903892F8E7F90FF8160FA
:103C600051CF90910A03892F877F93FF886050CFAF
:103C700081E0E4CF282F35EB2303C001112497FF07
:103C800004C080589109892F089580589F4FFBCF19
:103C90008091ED0280FF0DC06091200170E0660F01
:103CA000771F60387105B0F561157105A9F1862F90
:103CB000089581FF07C06091200184E0689FB001F2
:103CC0001124EFCF82FF04C06091200188E0F6CF7D
:103CD0009091EC029115D9F020911F018091200163
:103CE000682F70E0921730F043E0660F771F4A9517
:103CF000E1F7D7CF899FC001112433E0880F991FC6
:103D00003A95E1F7622F70E00E94682ECACF68E012
:103D100070E0CDCF8FE7089581E008958091ED02A6
:103D200080FF0CC060911C0170E0759567957595DA
:103D300067956115710549F1862F089581FF06C0C9
:103D400060911C0170E075956795F3CF60911C013F
:103D500082FD0BC09091EB029115A1F060911B01C7
:103D600080911C01961738F0682F70E0603871055B
:103D700000F38FE70895899FC001112470E00E942D
:103D8000682EF4CF61E070E0D7CF81E00895E3E3DF
:103D9000E80FE331E0F5F0E0EC57FF4C0C949E2E79
:103DA0000E94481E81958093F10208950E94481E4A
:103DB000FACF0E94481E81958093F00208950E94D8
:103DC000481EFACF0E948E1E8093F20208950E9430
:103DD0008E1E8195F9CF0E948E1E81958093F302ED
:103DE00008950E948E1EFACF815D990B21E030E08C
:103DF00001C0220F8A95EAF78091EF02822B80930F
:103E0000EF0208958091ED0281608093ED020895A4
:103E10008091ED028260F9CF8091ED028460F5CF50
:103E20004091F0028D3C59F48091F10287FF0DC062
:103E30001092F102411559F41092EC0208C08E3C28
:103E400081F48091F10218169CF3411581F0809164
:103E5000F2029091F302892B811159C01092EB026A
:103E600008958F3C41F447FFF0CF1092F00280910B
:103E7000F1028115E0CF803D19F41416B4F3E5CFBB
:103E80009091F202893D29F41916FCF61092F20283
:103E9000DCCF8A3D19F497FFD8CFF8CF9091F30289
:103EA0008B3D29F497FFD1CF1092F302CECF8C3DFA
:103EB00019F41916CCF3C9CF9FE2980F983090F4FB
:103EC000815D990B21E030E0B90102C0660F771FD8
:103ED0008A95E2F7CB0180959091EF028923809338
:103EE000EF02B3CF8D3D31F48091ED028E7F809350
:103EF000ED02ABCF8E3D21F48091ED028D7FF7CFA7
:103F00008F3D09F0A2CF8091ED028B7FF0CF089515
:103F10000E94B5262091F0023091F102232B211549
:103F200021F08093E9029093EA022091F20230910D
:103F3000F302232B211521F08093E7029093E802EE
:103F40008EEE92E00E949324089586E0EEEEF2E079
:103F5000DF011D928A95E9F71092EC021092EB02B4
:103F60001092ED020895FC01828181110DC08381C0
:103F700081110AC08481811107C081E0958191116E
:103F800001C080E08170089581E0FCCFA6E0B0E040
:103F9000ECECFFE10C94DE2E86E0EEEEF2E09E010A
:103FA0002F5F3F4FD90101900D928A95E1F7109252
:103FB000F0021092F1021092F2021092F3028B8141
:103FC0009C81892B7901811589F08091E90290917A
:103FD000EA020E94CD266C018091EC028115B9F1B4
:103FE000909121019C151D0408F43EC08D819E8195
:103FF000892B811591F08091E7029091E8020E944F
:10400000CD268C018091EB02811509F45FC090915F
:104010001D019017110608F467C0B7018EEE92E0FB
:104020000E94E625811105C08EEE92E00E94B31F2A
:1040300081110E94881F86E0F701AEEEB2E0019088
:104040000D928A95E1F72696E8E00C94FA2E2091DD
:1040500022019AE0299F900111242C153D0530F68C
:104060008F5F8093EC0202C08F3FD1F7DB80D114C9
:1040700059F00E94481E91E01D140CF09FEF899F9B
:10408000802D11248093F002DC80D11459F00E941D
:10409000481E91E01D140CF09FEF899F802D112484
:1040A0008093F1028091F002811509F49FCFD090A6
:1040B000F102D11409F49ACF0E943A1E8093F002C3
:1040C0008D2D0E943A1E8093F10290CF20911E0107
:1040D0009AE0299F900111242017310708F09DCF05
:1040E0008F5F8093EB0202C08F3FD1F71D811115C6
:1040F00059F00E948E1E91E011160CF09FEF899FDF
:10410000802D11248093F2021E81111559F00E9416
:104110008E1E91E011160CF09FEF899F802D1124C7
:104120008093F3028091F202811509F476CF109109
:10413000F302111509F471CF0E943A1E8093F20226
:10414000812F0E943A1E8093F30267CFA0E0B0E077
:10415000ECEAF0E20C94DD2EE82FF0E0E455FB4FA2
:10416000B490282F26952695269530E0F901E45B3A
:10417000FA4F0491877010E0082E02C0159507953C
:104180000A94E2F701701127F901E45CFA4FE49018
:10419000F12C082E02C0F594E7940A94E2F7E0FAB5
:1041A000EE24FF24E0F8F901E45DFA4FC491D0E079
:1041B00002C0D595C7958A95E2F7C170DD27C62E56
:1041C000D12C0115110549F5E114F10431F086EE09
:1041D0000E944605C601009771F5B6018B2D0E941D
:1041E000C105C601009779F5E114F104A1F50115A7
:1041F000110531F081EE0E948E05C6010097C9F5C8
:10420000CD2B31F08CE20E94DB05C114D104C9F53D
:10421000CDB7DEB7E9E00C94F92E81EE0E94460599
:10422000C601009789F2EFE9FFE03197F1F700C08E
:1042300000000197F6CFEFE9FFE03197F1F700C0FA
:1042400000000197C8CFEFE9FFE03197F1F700C018
:1042500000000197C7CF86EE0E948E05C601009729
:1042600031F2EFE9FFE03197F1F700C0000001976C
:10427000F6CFEFE9FFE03197F1F700C000000197BA
:10428000BDCF8FE99FE00197F1F700C0000091E0FA
:10429000C91AD108BACFEF92FF921F93CF93DF9341
:1042A000EC01162F8881811509F45AC0813009F07C
:1042B00053C08981813071F47E0182E0E80EF11CE7
:1042C0008A810E94DB05E701812F90E00097E1F5EC
:1042D0002196E8CF823041F47E01E2E0EE0EF11C3F
:1042E0008A810E944605EFCF833041F47E01F2E0DF
:1042F000EF0EF11C8A810E948E05E5CF843011F00B
:104300002196E2CF2A81229680E090E06AE0AE0119
:104310004F5F5F4F2053330B2A30310550F0009729
:1043200099F2EFE9FFE03197F1F700C00000019743
:10433000F6CF689FF001699FF00D1124C9018E0F1F
:104340009F1F2981EA01E3CFEFE9FFE03197F1F701
:1043500000C000000197BACF612F0E94A620B8CFFD
:10436000DF91CF911F91FF90EF9008950F931F93CE
:10437000CF93DF93C42FD22FFC0185818115C9F023
:104380004093F6020E94B5269093F5028093F402C2
:1043900080E28C0F883040F4C77081E001C0880F44
:1043A000CA95EAF70E94E405DF91CF911F910F9122
:1043B00008951091F602141333C08091F402909185
:1043C000F5020E94CD26883C910550F5C0E2CD0F44
:1043D0001D17C1F080E2810F883040F4177081E032
:1043E00001C0880F1A95EAF70E94EB05C83050F417
:1043F00091E08D2F877001C0990F8A95EAF7892F78
:104400000E94E405802F0E94DB05C83068F6D77053
:1044100081E001C0880FDA95EAF70E94EB05C4CF6E
:1044200080E28C0F883008F0BFCFC77081E001C0F8
:10443000880FCA95EAF7F1CF0F93DB01FC01E85131
:10444000FC47E730F10598F5E956FF4C0C949E2E99
:1044500006E221EE41EE6AE17CE7CD010E94B62141
:1044600080E00F91089507E225EE45EE6BE17CE7D1
:10447000F4CF06E221EE40EE68E17CE7EECF07E202
:1044800025EE44EE69E17CE7E8CF06E221EE42EE5C
:104490006CE17CE7E2CF07E225EE46EE6DE17CE7DA
:1044A000DCCF08E221E045EE6EE17CE7D6CF159641
:1044B0008C9181111092F60281E0D3CFCF93DF93DC
:1044C0009C01FB0127378CE7380739F028373C4738
:1044D000F1F081E0DF91CF9108958581811591F010
:1044E0000E9490220E94B2080E949622D82F0E9419
:1044F0009322C82F0E9490224D2F6C2F0E94E30917
:1045000080E0E8CF0E9490220E94BE08EDCF858116
:10451000811519F00E949322E5CF0E949322F4CFD7
:1045200080912501089580912401089580912301AF
:10453000089584E290E00E94C02F843289F485E2DD
:1045400090E00E94C02F893059F486E290E00E94EA
:10455000C02F91E0863009F090E0892F8170089596
:1045600080E0FCCFCF93C82F64E2811101C06FEFD0
:1045700084E290E00E94E42F69E0C11101C06FEF76
:1045800085E290E00E94E42F66E0C11101C06FEF68
:1045900086E290E00E94E42FCF910895089587E28B
:1045A00090E00E94C02F682F70E080E090E00895B6
:1045B0000895CF93C62F0E94D8226C2F87E290E0F7
:1045C0000E94E42FCF91089580E00E94B22260E023
:1045D00070E0CB010E94D9220E94FB1B0E94B01CFC
:1045E00081E00E94B22208950E94CE220E94CF2232
:1045F0000E94D8220E949922811102C00E94E422C6
:1046000008950E94161A08959C01FB018581811569
:1046100051F0A90157574038510530F4822F0E94BC
:10462000C01C80E0089581E008952FEFFC012083F5
:10463000089580E00895CF93DF93EC018881833063
:10464000F1F038F4813071F0823081F0DF91CF9158
:1046500008958430D9F70E94911489830E9494149C
:104660008A83F4CF0E9497148983F0CF0E9430147C
:10467000811519F00E942714F7CF80E0F5CF0E9432
:104680007414F2CFCF93DF93EC018881833039F13A
:1046900038F4813069F08230B1F0DF91CF91089524
:1046A0008430D9F70E949714482F6A81898108C005
:1046B000D9810E949414C82F0E9491144D2F6C2F01
:1046C0000E946F16EACF8981811103C00E942919C7
:1046D000E4CF0E940C1A89810E94C719DECF89811C
:1046E0000E948D14DACFFC019C012E5F3F4F908118
:1046F000983041F0993051F0973059F4C9010E9437
:1047000042230895C9010E941B2308950E940614A4
:1047100008958FEF80830895FC018181823021F418
:10472000CF010E9473230895CF010E94152308959D
:10473000CF92DF92FF920F931F93CF93DF93EC0101
:10474000F62E0E941923811110C0E881E150E33157
:10475000E0F4F0E0E256FF4C0C949E2E19828CE0BF
:104760008A836F2DCE010E946E27DF91CF911F911A
:104770000F91FF90DF90CF90089589818330F9F0F9
:1047800038F4813061F0823099F08FEF8883E9CF7F
:104790008430D9F71A821B821C821D82E2CF0E94CC
:1047A000C1260E94A42E6A837B838C839D83D9CFEC
:1047B0000E94CF221A821B821C826D83D2CF0A8173
:1047C00010E06E01F2E0CF0ED11C053011054CF661
:1047D000802F0E948A11F601918382830F5F1F4F01
:1047E000F1CF8981823031F0853079F68A810E945B
:1047F0000123B7CF6A817B818C819D810E94A42E89
:104800000E94D922AECF4B816A8189810E94BD1B53
:104810009827892798279D838C83A3CF2C813D815E
:104820003227232732274B816A8189810E94DF1B2F
:1048300098CF0E94FB1B95CF6F2DCE010E948C2339
:1048400090CF0E94681C89838CCF0E946A1C982795
:10485000892798279A83898384CF6B8170E0898127
:104860009A81AE014C5F5F4F9827892798270E9455
:104870006D1C77CF6B8170E089819A81AE014C5FAE
:104880005F4F9827892798270E948F1C6ACF0E9424
:10489000B01C67CF0E94AB1BD6CF6B8170E08981C3
:1048A0009A81AE014C5F5F4F9827892798270E9415
:1048B0001B1C57CF6B8170E089819A81AE014C5FE0
:1048C0005F4F9827892798270E943C1C4ACF9093D6
:1048D000FC028093FB020895E091FB02F091FC0240
:1048E000309729F00190F081E02D0995089580E03E
:1048F0000895E091FB02F091FC02309721F00280D4
:10490000F381E02D09950895DC01E091FB02F0911F
:10491000FC02309739F086E08C930480F581E02D1D
:10492000CD0109950895DC01E091FB02F091FC02B4
:10493000309739F082E08C930680F781E02DCD012D
:1049400009950895A3E0B0E0E8EAF4E20C94E42EBF
:104950009C018091F9029091FA0282179307A1F0CD
:104960003093FA022093F902E091FB02F091FC02ED
:10497000309751F083E089833B832A830084F1855B
:10498000E02DCE01019609952396E2E00C94002FCC
:10499000A3E0B0E0EEECF4E20C94E42E9C018091F4
:1049A000F7029091F80282179307A1F03093F80272
:1049B0002093F702E091FB02F091FC02309751F056
:1049C00084E089833B832A830084F185E02DCE0136
:1049D000019609952396E2E00C94002F20910601A0
:1049E000309107012E5F3F4F80913001811579F0A2
:1049F0008091090387FF0BC02091040130910501CC
:104A00002E5F3F4F9EE180E0915018F4089596E0AC
:104A1000FACFF90141919F014115B1F38F5FF4CFB6
:104A20008115A1F190913001911521F09091090328
:104A300097FD0FC02091060130910701F9013296D0
:104A4000285F3F4F9191981719F1E217F307D1F7BB
:104A50001DC0982F969596959695803FB8F4E09155
:104A60000401F0910501E90FF11D228130E087700A
:104A700041E050E0BA0102C0660F771F8A95E2F765
:104A8000CB012623392381E0232B19F480E00895FC
:104A900081E008959C01FC0132968FEF90E04191F6
:104AA000461751F08F3F19F4411101C0892F9F5FC4
:104AB0009630A9F78F3F09F40895280F311D87FD1F
:104AC0003A95F901628308959C01FC013296285FB2
:104AD0003F4F8191861302C0DF011E92E217F30758
:104AE000C1F70895FC01862F869586958695603FCF
:104AF00060F4E80FF11D677021E030E001C0220F83
:104B00006A95EAF78281822B82830895FC01862FC1
:104B1000869586958695603F80F4E80FF11D677055
:104B200081E090E09C0102C0220F331F6A95E2F7FA
:104B3000B90160958281682362830895682F80910E
:104B40003001811559F08091090387FF07C08091DA
:104B50000401909105010E9472250895809106013B
:104B6000909107010E944A250895682F8091300195
:104B7000811559F08091090387FF07C080910401D6
:104B8000909105010E9486250895809106019091DB
:104B900007010E946425089580913001811579F004
:104BA0008091090387FF0BC0E0910401F09105019A
:104BB00032968EE1DF011D928A95E9F70895E09122
:104BC0000601F0910701329686E0F4CFDC01FB018B
:104BD00011969C9111978181981322C012968C9105
:104BE0001297811519F0928189131AC013968C912E
:104BF0001397811519F09381891312C015968C9122
:104C00001597811519F0958189130AC014969C9106
:104C1000911521F081E02481291303C080E001C0B7
:104C200081E08170089508950E94132608958F5F92
:104C30008093FD020E941426089583E08093FD0274
:104C40000E94142608950E941726089581E08093FB
:104C5000FD020E94142608950E94262608950895B4
:104C600008950E9430260895089508950E942F26E1
:104C70000895CF930E9434260E945C120E9435262C
:104C8000C0E08C2F0E948A11892B31F4CF5FC53090
:104C9000C1F780E0CF91089581E0FCCF85B78068AF
:104CA00085BF85B7806885BF08951F921FB61F9284
:104CB00011248F939F93AF93BF938091FE02811134
:104CC00013C08091390390913A03A0913B03B091B6
:104CD0003C034196A11DB11D8093390390933A0383
:104CE000A0933B03B0933C03BF91AF919F918F91F1
:104CF0001F901FBE1F90189580914103843031F1A1
:104D00000E94C1041092FE0288E190E020E40FB6F8
:104D1000F894A895809360000FBE2093600083B73D
:104D2000817F846083BF83B7816083BF78948895D7
:104D300083B78E7F83BF0FB6F894A89580916000EB
:104D4000886180936000109260000FBE08950E94F9
:104D500031080E94C604089582E084BD93E095BDA9
:104D60009AEF97BD80936E0008952FB7F8948091C5
:104D7000390390913A03A0913B03B0913C032FBFBC
:104D800008952FB7F8946091390370913A03809198
:104D90003B0390913C032FBF08959C014FB7F894BB
:104DA0008091390390913A03A0913B03B0913C0369
:104DB0004FBF821B930B089578941F921FB61F92CA
:104DC00011248F939F93AF93BF9380913903909158
:104DD0003A03A0913B03B0913C030196A11DB11D84
:104DE0008093390390933A03A0933B03B0933C0321
:104DF000BF91AF919F918F911F901FBE1F901895EB
:104E000087E797E7909301088093000888E19AE08C
:104E10000FB6F894A895809360000FBE9093600041
:104E2000FFCF88E19AE00FB6F894A89580936000D0
:104E30000FBE90936000FFCF809107030895282F45
:104E4000CB01BA01309141033430D9F42F70209353
:104E5000E9002FEF3091E80035FD06C035ED3A95B9
:104E6000F1F700002A95B1F72091E80025FF09C06D
:104E700040E050E00E9464298091E8008E778093A2
:104E8000E8000895BC0143E050E084E00E941F2741
:104E90000895BC0146E050E084E00E941F27089579
:104EA000BC0140E250E084E00E941F270895CF93A8
:104EB000DF93D82FC92F48E050E0682F792F81E089
:104EC0000E941F2788E0ED2FFC2FAFEFB2E001908A
:104ED0000D928A95E1F7DF91CF910895792F603295
:104EE00031F440E250E0682F82E00E941F270895CD
:104EF000A0E2B0E0EEE7F7E20C94E42E80914103EB
:104F0000843009F583E08093E9008091E80082FF16
:104F10001AC08091E80090E085FF09C040E050E0B1
:104F200060E270E0CE0101960E94B42991E0809188
:104F3000E8008B778093E800911529F060E2CE01BC
:104F400001960E949823A096E2E00C94002F809195
:104F50004003811109C00E943D2B0E949A2B809131
:104F6000E20084608093E200089510924003089567
:104F70000E942626089560913D0381E0611101C0E1
:104F800080E00E941D2608959091410381E09430B5
:104F900009F080E060913D030E942326089542E0DD
:104FA00061EC81E00E94B92A42E261EC84E00E9457
:104FB000B92A42E261EC82E00E94B92A42E260EC46
:104FC00083E00E94B92A9091410381E0943009F076
:104FD00080E060913D030E9417260895809143036D
:104FE000893089F148F4823009F4A1C0833009F492
:104FF0005BC0813041F008958A3009F488C08B305D
:1050000009F46DC0089580914203813A09F04BC0C4
:105010008091E800877F8093E8008091460390911B
:105020004703892B61F060E080E090E070E00E942F
:10503000042A8091E8008B778093E800089568E067
:105040008FEF92E0F3CF80914203813261F580913E
:105050004603909147038D7F892B29F58091E800C5
:10506000877F8093E8008091E80082FF18C09091CC
:10507000F3008091F200029731F48091F1008130C9
:1050800011F0863021F48091F10080930703809124
:10509000E8008B778093E8000E94ED2A08958091C4
:1050A00041038111E0CF089580914203813AD9F7FD
:1050B0008091460390914703892BA9F78091E800DE
:1050C000877F8093E8008091E80080FFFCCF80918B
:1050D00030018093F1008091E8008E77DBCF8091E2
:1050E0004203813201F78091460390914703892B57
:1050F000D1F68091E800877F8093E8000E94ED2A36
:1051000080914403809330010E943108089580917A
:105110004203813241F68091E800877F8093E80066
:105120000E94ED2A809145038093080308958091A1
:105130004203813A09F0B7CF8091E800877F8093DE
:10514000E8008091E80080FFFCCF80910803C1CF88
:1051500084B7877F84BF0FB6F894A89580916000CC
:10516000886180936000109260000FBE80E890E03C
:105170000FB6F89480936100909361000FBE0E9477
:105180002C2608950E943D2B0E949A2BE2EEF0E01F
:1051900080818460808378940E94202E089586E226
:1051A00091E00E946724089580914103853031F495
:1051B00080914103853019F00E94A72608950E942E
:1051C0007C260E943926811599F380913F03811531
:1051D00079F30E944E290E943108EACF08959A017E
:1051E00040914803509149030E94F7280895FC011B
:1051F000AB01D901892F992783309105C1F068F45B
:105200008130910509F445C0029761F48BE590E087
:1052100028E835E02D933C93089581329105E1F023
:10522000829739F180E090E020E030E0F3CFCF01C9
:105230009927E13059F08230910559F0E4E8F5E022
:10524000892B81F7849190E09F01E4CFE0E7F5E0BE
:10525000F9CFECE5F5E0F6CF6330710518F7FB0107
:10526000EE0FFF1FEA51FE4F2081318189E090E06F
:10527000D1CF63307105B0F6FB01EE0FFF1FE05296
:10528000FE4F2081318143525E4FFA01808190E0D0
:10529000C1CF82E190E023EE35E0BCCF80E189BD53
:1052A00082E189BD09B400FEFDCF8091D8008F7DD9
:1052B0008093D8008091E00082608093E00080912C
:1052C000E00081FDFCCF0895AF92BF92CF92DF92B4
:1052D000EF92FF920F931F93CF936C018B017A0192
:1052E0000E940C2BC82F811123C0E114F10439F066
:1052F000F70180819181081B190BC80ED91EA12CC2
:10530000B12C01151105A1F08091E80085FD21C0A7
:105310008091E8008E778093E800E114F10499F021
:10532000F701808191818A0D9B1D91838083C5E067
:105330008C2FCF911F910F91FF90EF90DF90CF9026
:10534000BF90AF9008950E940C2B8115E9F2C82FF1
:10535000EFCFF60181916F018093F10001501109A7
:10536000FFEFAF1ABF0ACDCFAF92BF92CF92DF92BD
:10537000EF92FF920F931F93CF936C018B017A01F1
:105380000E940C2BC82F811123C0E114F10439F0C5
:10539000F70180819181081B190BC80ED91EA12C21
:1053A000B12C01151105A1F08091E80085FD21C007
:1053B0008091E8008B778093E800E114F10499F084
:1053C000F701808191818A0D9B1D91838083C5E0C7
:1053D0008C2FCF911F910F91FF90EF90DF90CF9086
:1053E000BF90AF9008950E940C2B8115E9F2C82F51
:1053F000EFCF8091F100F60181936F010150110907
:10540000FFEFAF1ABF0ACDCFFC019B01809148038B
:10541000909149038617970718F0672B61F0C9012F
:1054200040E0009771F441110CC08091E80082FFC8
:1054300035C080E008958091E8008E778093E80081
:10544000EECF209141032115A9F12530A9F120913A
:10545000E80023FD2DC02091E80022FDE6CF209139
:10546000E80020FFDECF3091F3002091F20000979A
:1054700019F02830310558F041E02830310509F0A5
:1054800040E02091E8002E772093E800CACF4191B8
:105490004093F10001972F5F3F4FE9CF8091410387
:1054A000811541F0853041F08091E80083FFBDCF48
:1054B00081E0089582E0089583E00895FC019B0156
:1054C00080914803909149038617970718F0672B3E
:1054D00061F0C90140E0009771F441110CC0809166
:1054E000E80082FF36C080E008958091E8008E7762
:1054F0008093E800EECF209141032115B1F12530D2
:10550000B1F12091E80023FD2EC02091E80022FD9A
:10551000E6CF2091E80020FFDECF3091F30020910C
:10552000F200009719F02830310558F041E028309A
:10553000310509F040E02091E8002E772093E80043
:10554000CACF44914093F100319601972F5F3F4FAE
:10555000E8CF80914103811541F0853041F0809181
:10556000E80083FFBCCF81E0089582E0089583E0E6
:105570000895982F973028F08F708093E90081E08C
:1055800008959093E900242F762F50E0981731F07A
:105590007091EC002091ED005091F00021FD02C0CF
:1055A0009F5FE8CF3091EB003E7F3093EB0030916E
:1055B000ED003D7F3093ED003091EB003160309392
:1055C000EB007093EC002093ED005093F0002091DD
:1055D000EE0027FDE5CF80E008958091420387FF2C
:1055E00013C08091E80082FF06C08091E8008B77AD
:1055F0008093E8000895809141038111F2CF0895CE
:10560000809141038115D9F38091E80080FFF8CFA4
:105610008091E8008E77ECCF2091E4003091E50096
:1056200095E6A9012091EC00822F817020FF06C031
:105630008091E80080FF06C080E008952091E80096
:1056400022FD1AC080914103811589F0853089F0CF
:105650008091EB0085FD0FC02091E4003091E500C2
:1056600042175307F9F29A95E1F684E0089582E033
:10567000089583E0089581E008950E94AC2B0E9474
:10568000B42BE0EEF0E0808181608083E8EDF0E013
:1056900080818F77808319BCA7EDB0E08C918E7FDD
:1056A0008C9380818F7E80831092400308950F93A6
:1056B0001F93CF93DF930E94AC2B0E94B42BC8EDB5
:1056C000D0E088818F77888388818068888388810B
:1056D0008F7D888319BC1092410310923D03109274
:1056E0003F0310923E0300EE10E0F80180818B7FB3
:1056F000808388818160888342E060E080E00E944E
:10570000B92AE1EEF0E080818E7F8083E2EEF0E066
:10571000808181608083808188608083F8018081BE
:105720008E7F8083888180618883DF91CF911F91F4
:105730000F910895E8EDF0E080818F7E8083E7EDA2
:10574000F0E080818160808384E082BF81E080938B
:1057500040030E94572B0895E8EDF0E080818E7F92
:1057600080831092E20008951092DA001092E10016
:1057700008951F920F920FB60F9211242F933F930B
:105780004F935F936F937F938F939F93AF93BF9349
:10579000EF93FF938091E10082FF0BC08091E200C4
:1057A00082FF07C08091E1008B7F8093E1000E941F
:1057B0001F2E8091DA0080FF19C08091D80080FFF1
:1057C00015C08091DA008E7F8093DA008091D90035
:1057D00080FF94C080E189BD82E189BD09B400FEEB
:1057E000FDCF81E0809341030E94A7278091E100D3
:1057F00080FF19C08091E20080FF15C08091E20017
:105800008E7F8093E2008091E20080618093E200CD
:105810008091D80080628093D80019BC85E0809385
:1058200041030E94BB278091E10084FF29C0809141
:10583000E20084FF25C080E189BD82E189BD09B411
:1058400000FEFDCF8091D8008F7D8093D80080919D
:10585000E1008F7E8093E1008091E2008F7E809353
:10586000E2008091E20081608093E20080913D033C
:10587000811509F449C084E0809341030E94C42744
:105880008091E10083FF29C08091E20083FF25C061
:105890008091E100877F8093E10082E08093410363
:1058A00010923D038091E1008E7F8093E100809112
:1058B000E2008E7F8093E2008091E200806180931D
:1058C000E20042E060E080E00E94B92A8091F000AE
:1058D00088608093F0000E94B827FF91EF91BF91FC
:1058E000AF919F918F917F916F915F914F913F9178
:1058F0002F910F900FBE0F901F90189519BC10920A
:1059000041030E94B52772CF8091E30087FF02C058
:1059100083E0B2CF81E0B0CF1F920F920FB60F920B
:105920001124EF92FF920F931F932F933F934F9366
:105930005F936F937F938F939F93AF93BF93CF9317
:10594000EF93FF9309EE10E0F8018081C091EC0025
:105950008F70C795CC27C795C82B108280EFE82E93
:10596000F12CF7018081877F808378940E94D72C67
:10597000F8011082F701808188608083CF70F80180
:10598000C083FF91EF91CF91BF91AF919F918F9184
:105990007F916F915F914F913F912F911F910F9147
:1059A000FF90EF900F900FBE0F901F901895AAE2F6
:1059B000B0E0EDEDFCE20C94E22E82E493E0FC0119
:1059C00001962091F100208323E08A349207B9F7F1
:1059D0000E94EE278091E80083FF38C08091420347
:1059E000909143039A3090F5E92FF0E0EF54FF4C8B
:1059F0000C949E2E803889F0823841F580914603C0
:105A00008F70873018F58093E9008091EB0085FB5B
:105A1000882780F91092E90006C080913F03880F23
:105A200090913E03892B9091E800977F9093E80036
:105A30008093F1001092F1008091E8008E7723C0EE
:105A4000811116C080914403813011F18091E800EA
:105A500083FF0AC08091E800877F8093E8008091EF
:105A6000EB0080628093EB00AA96E4E00C94FE2E9B
:105A7000823061F780914403811589F01092E9002A
:105A80008091E800877F8093E8000E94ED2ADECFB6
:105A900081E0933009F080E080933F03EFCF809165
:105AA00046038F702FEF280F263080F68093E90091
:105AB0002091EB0020FFE2CF933031F48091EB0096
:105AC00080628093EB00DACF9091EB00906190932D
:105AD000EB0021E030E0A90102C0440F551F8A9578
